:1000000000400020912900008D2900008D2900006A
:100010008D2900008D2900008D29000000000000BE
:100020000000000000000000000000008D2900001A
:100030008D290000000000008D2900008D2900009E
:100040008D290000910B00008D2900008D290000F2
:100050008D2900008D2900008D2900008D290000C8
:100060008D2900008D2900008D2900008D290000B8
:100070008D2900008D2900008D2900008D290000A8
:100080008D2900008D2900008D2900008D29000098
:100090008D2900008D2900008D2900008D29000088
:1000A0008D2900008D2900008D2900008D29000078
:1000B0008D2900008D2900008D2900008D29000068
:1000C0008D2900008D2900008D2900008D29000058
:1000D0008D2900008D2900008D2900008D29000048
:1000E0008D2900008D2900008D2900008D29000038
:1000F0008D2900008D2900008D29000000000000DE
:1001000000000000000000000000000000000000EF
:1001100000000000000000000000000000000000DF
:100120008D2900008D2900008D2900008D290000F7
:100130008D2900008D2900008D2900008D290000E7
:10018000FFFFFFFFFFFFFFFFFFFFFFFFFFFFFFFF7F
:1001900003329CA77F000000FFFFFFFFFFFFFFFF70
:1001A00010B5054C237833B9044B13B10448AFF3B1
:1001B00000800123237010BDC4050420000000004E
:1001C000B8A0000008B5034B1BB103490348AFF3C7
:1001D000008008BD00000000C8050420B8A0000091
:1001E000A3F5803A704700BF154B002B08BF114B99
:1001F0009D46FFF7F5FF00218B460F461148124A36
:10020000121A04F0FDFD0C4B002B00D098470B4B4D
:10021000002B00D098470020002104000D000B485F
:1002200003F0FEFC04F0A0FE2000290000F024FEF4
:1002300003F004FD000008000000000000000000C2
:1002400000400020C405042000100420B94F000025
:100250002DE9F0430746CDB00A20884602F090F819
:100260000A2800F24D82002301214FF08072AC4C2D
:1002700003A80593CDE9031201F092FE237D012B23
:1002800003D094F8B433002B46D1236A002532936F
:1002900094F8513005223D9394F8503039923C93B4
:1002A000012341930A233893E36D8DF8DC503E938C
:1002B000236E33953F9394F864308DF80031636B6F
:1002C0003093A36D3693636D3493A3693193E36EDA
:1002D0002F9394F86830012B40F0FB81636FE56742
:1002E00073B1904E31462FA802F088F88E482FA99E
:1002F00001F024F8636F01359D4206F10806F1D341
:100300000023E3670023D4F890202375C4F88820E5
:10031000D4F89420C4F88C200021022001F02CFE97
:1003200002230122CDE90B330D93636A0AA80E93D1
:100330008DF8282001F0F2FD4FF0FF3001F0DAFFD8
:1003400094F8B433002B40F0B380002F00F0DB8131
:10035000B8F1000F00F0D78100254146384600F083
:100360002DFE012000F04AFE704A714B06A806924D
:100370000793CDF8215001F0B5FA0B2305224893DD
:10038000236C49923393636C4FF440623493A36CB3
:100390008DF81C513593A36D439546934FF4C0439C
:1003A000CDE930324FF4807302223293636D2F9582
:1003B000449394F86830ADF8DC50012B369200F08D
:1003C0009181206BC4F8B003A16901F02FFC594959
:1003D0003E90E06B03F07AF9574903F0C3F84FF011
:1003E0007C5102F0B7FF002503F082FACDE93F050A
:1003F0002FA8419501F0A4FB1E23139340F2011393
:10040000ADF874304FF48073ADF8543043F2E033FC
:100410004FF0020801274FF003091C93474B0FA828
:10042000CDF85630CDE90F55CDE91155CDE9195527
:10043000149517951B95CDF8608001F0B7FCE36C1F
:100440001EA8209394F85130CDE91E77229394F89A
:100450005030CDE923972193E36DCDE92C552993B5
:10046000236E27952A9394F8643028958DF8AC3044
:10047000ADF894708DF898702E9501F015FD394601
:100480002F4801F0E7F9284601F034FE4FF0014013
:1004900000F07EFD02A901A800F0A4FD0646284652
:1004A00000F0ACFD002E51D030464DB0BDE8F083D9
:1004B0002378012B3FF449AF0023224884F8C4334A
:1004C00001F0CAFD012303A88DF8103001F068FD8A
:1004D000D4F8B80301F0A0FD4FF40041012001F071
:1004E0000FFF0028F8D000260125174884F8D863AC
:1004F00001F0B2FD03A88DF8105001F051FD00F09D
:10050000EFFAA06B032101F0E7F9082142F25C3019
:1005100001F07EF8304684F8B4534DB0BDE8F08366
:100520000000042090000420680004200101010064
:10053000000101000000484400E0FF448B061F005A
:10054000604E1100B8030420CC030420029A0199E4
:100550006068C4F8C023C4F8C813C4F8BC03C4F866
:10056000B87301F063FDE36D216A434407FA03F3B6
:100570003093236EA069349394F8513033963293BC
:1005800094F85030CDF8BC90319303F09FF80FA948
:1005900036902FA800F00EFE384600F02FFD4020C8
:1005A00001F0A8FD4FF47A6000F0F2FC10224FF445
:1005B0008063CDE91E234FF481731EA82193CDF8EB
:1005C000808001F0E7F93946384601F02DFC3946C4
:1005D0004FF4814001F03EF94FF4487000F0D8FC30
:1005E00039464FF4014001F035F90F9820F04040B2
:1005F00000F0CEFC31464CF2801001F02BF90621C0
:10060000072001F011FC39464FF4814001F022F936
:100610004FF4487000F0BCFC39464FF4014001F043
:1006200019F90F9820F0404000F0B2FC31464CF22E
:10063000801001F00FF94FF480734FF4C041219303
:100640004FF440631EA8CDE91F131E9601F0A2F9D6
:10065000304601F04FFD01F085FE06A902A800F02A
:10066000C1FC0646284600F0C9FC00F0D5FCC4F8E1
:10067000E8030A3002F004FB0022274B02F07AFB69
:1006800023A3D3E9002302F075FB02460B460020AA
:10069000224902F099FC02F007FEA16AC4F8EC03BB
:1006A000054603F0FDF800B1A562002E7FF4FCAE14
:1006B000D4E9EF030299069A1844C4F8CC63C4F84D
:1006C000DC13C4F8D423C4F8D00301F0AFFC2670C7
:1006D000F2E6236B12492FA82F9301F08FFE00231F
:1006E000237519E60F49E36EA1F11C00E567C4F814
:1006F000B033C4F8803000F021FED4F8800063E607
:100700006FF00806D0E66FF00106CDE6AFF300808B
:100710008DEDB5A0F7C6B03E0000B03F0000F03F41
:1007200088000420840004202DE9F04F914E8DB004
:1007300096F8B433002B00F0168107460A2088464D
:1007400001F01EFE0A2800F21181002001F004FED3
:1007500000204FF00071C8F8000001F0D1FD012821
:1007600003D000200DB0BDE8F08F01F011FC20F0A7
:1007700003042146384600F0D3FE4FF0007001F02C
:10078000B9FDF26A4FEA940B002A08DDD6F8E4338B
:1007900003EB94039342C6F8E43380F0C58096F8E7
:1007A000E033012B00F0C08096F86830002B40F059
:1007B000B580714801F0D0FD002C00F0A8803A1FF0
:1007C00002EB84016D4C52F8043F980354BFC3F30D
:1007D0001103234391421360F5D13C460025D6F81E
:1007E0008830CDF82C800793D6F88C3008933B1DC9
:1007F000CDE90937D4F808901034484602F05EFE7F
:1008000054F804AC0746504602F058FE394680467C
:10081000384602F0A7FE41460746404602F0A2FED7
:100820000146384602F096FD02F04CFA07F072FCE1
:10083000CDE90001484602F033FA80468946CAF104
:10084000000002F02DFA42464B4607F0BFFB54F879
:10085000109CCDE90201484602F030FE54F80CAC81
:100860000746504602F02AFE39468046384602F0D6
:1008700079FE41460746404602F074FE014638467E
:1008800002F068FD02F01EFA07F044FCCDE9040115
:10089000484602F005FA80468946CAF1000002F097
:1008A000FFF942464B4607F091FB80468946DDE959
:1008B000000102F0F9FC0746DDE9040102F0F4FC56
:1008C0000146384602F002FF0746DDE9020102F068
:1008D000EBFC49468246404602F0E6FC01465046A3
:1008E00002F036FD07998046384602F03BFE0A9B2F
:1008F000089943F83500404602F02CFD099B43F867
:10090000350001355D457FF475AFDDF82C8096F834
:100910006830012B0CD0C8F800B022E7B169D6F8D6
:10092000840001F033F944E7002001F0E9FB40E7DF
:10093000D6F88020F36FC6F8B023D6F8842010498B
:10094000C6F8802003F1120206EBC30356F83220EA
:10095000D3F89430A1F11C00C6F88820C6F88C307A
:1009600000F0ECFCD7E76FF06300FBE66FF00800E7
:10097000F8E600BF00000420E5470A000000FCFF85
:100980008400042030B5042489B01D4601920394EC
:10099000FFF75EFC0023194C019AA16910462263FF
:1009A00084F86830C4F8B02301F0F0F80A2001F0B0
:1009B000E7FCD4F8CC0301F02FFB114C01E0013C23
:1009C00014D04FF00071002001F09AFC0028F6D0FE
:1009D00003A904A8FFF7A8FE039B5BB10020049ABB
:1009E000059B2A600C9A136009B030BD6FF00900B6
:1009F00009B030BD4FF0FF30F6E700BF0000042023
:100A0000A0860100002330B54FF040249E4622838B
:100A10009342B4F820C006D21CF4706F18D0A58899
:100A2000013301F8015B964508D21CF0080FEFD1A5
:100A300010F801CB0EF1010EA4F808C09A42E7D1DC
:100A40009645E5D14FF0402213889B07FCD530BD79
:100A50009645EAD3DCE700BF4FF48062014BA3F870
:100A60005C207047000002404FF48062014BA3F805
:100A700058207047000002404022024BA3F8982003
:100A8000704700BF000002404022024BA3F89C20A8
:100A9000704700BF00000240F8B170B504460F4E29
:100AA00004EB8403B6EB430F4FEA540507D2284604
:100AB00004F00104FFF7F0FF6419F1D170BD4FF0AD
:100AC000E022052304EB8414A4005461136113692C
:100AD000DB03FCD50023136170BD70479CD809006F
:100AE000012000220249034BC1F890001A607047B0
:100AF00000C00440E00504204FF6FF724FF0400CA8
:100B000070B54FF0402101244FF0000E44F24336FF
:100B10001C4B09251A81A3F84820A3F88820B3F8B4
:100B20008420194842EA0C02A3F88420A3F898C054
:100B30001A6822F03F0242F015021A601A6C22F481
:100B400040421A64B3F8442042F48062A3F844207F
:100B5000A1F80CE00E820C839A896FEA42426FEA98
:100B600052429A81C0F88050C0F890400221074A52
:100B700011604FF480627046A3F85820A3F898C023
:100B800070BD00BF0000024000C0044000E100E072
:100B900001230349034AC1F890301360704700BF36
:100BA00000C00440E0050420334A2DE9F8431368EF
:100BB000324923F4700343F4A00313604A680646E5
:100BC00012F47C5FC2F305233FD04FF400692B4839
:100BD0005A010168002301F003010129B9FBF2F970
:100BE0003CD0022940D00021254D0327254C284622
:100BF000A78502F09DFE3246F31702F099FE421ED1
:100C00002285D317A5FB090102F092FE3246F317A5
:100C100002F08EFE00220123A0F5006040F408409F
:100C2000A084A280A7812384238C43F0060323841D
:100C3000238C23F0060323844FF48042124B1A6066
:100C40000523A380A08ABDE8F8830C484FF0400933
:100C50000168202201F003010129C2D1016811F4C9
:100C60000071C0D1094DC0E7C568094905F01F05ED
:100C700001FB05F50021B8E70000024000C3044075
:100C800080BA8C010050004000E100E00024F40034
:100C900040420F004FF0C90C4CF614300A2110B539
:100CA000114A124C124B82B0A4F808C0D0601161F6
:100CB000019303E0019B013B019313B113691B05F1
:100CC000F8D500224CF6143C40F20121094B064CA9
:100CD0004FF46130C4F80CC019605A605A61FFF7D4
:100CE00063FF012002B010BD00C10440002C004091
:100CF000A086010000C3044030B51C4A0129948835
:100D000083B024F00104034694802DDD0024184DA7
:100D10000139908AC0070FD510880D2818D00A28ED
:100D200016D01855286801918068009303F056FE8C
:100D3000DDE900310D4A01348C42EADB2344002214
:100D40001A702B68986803B0BDE8304003F046BEC7
:100D5000002CF3D10548B0F814C01CF0010FD8D016
:100D600000880D28DBD1D4E7014DE8E700500040B2
:100D7000FC0304202DE9F04794B001F031FB00F0B2
:100D800033FD0021364800F065FD002401254FF0B9
:100D9000011302A80693CDE903450595029401F0DD
:100DA00007FA022304220DF11C084046CDE90A325D
:100DB000CDE908338DF81C4001F0B0F840468DF8BD
:100DC0001C5001F0ABF80CA8CDE90D44CDE90F445F
:100DD0000C9401F0A9FA2A464FF0FF31284601F0A1
:100DE0006DFA2A464FF00071204601F067FA4FF085
:100DF000FF3001F07FFA1B4BDFF86C90DFF86CA03E
:100E00000293079319E0524602AB4FF40071184861
:100E1000CDF80080FFF7B6FD029801F053FF0446BD
:100E200007980D4601F04EFF06460F4622462B4618
:100E3000CDE900670F4803F085FFD9F800309868C6
:100E400003F0CCFD0CA82021FFF756FF0CA802F000
:100E5000EDFE0028D7D002F031FB0246D4E700BFF8
:100E6000E0FF3900000080BFFC03042000606A46F8
:100E7000E40504205C9A000008B50020FFF70AFF93
:100E80000020FFF739FEFFF775FF00BF101E18DDC9
:100E900000B54FF00D0E01390A4A00EB010C11F8B4
:100EA000013F0A2B06D01380938A9B06FCD561452F
:100EB000F5D100BDA2F800E0938A9B06FCD50B7823
:100EC000F1E77047005000404FF0FF30704700BF1F
:100ED00000207047012070470020704700207047B5
:100EE000042200B583B003BA0DEB020168460093FB
:100EF000FFF788FD019800BA03B000BD30B583B09C
:100F00000446FFF7A9FD20230122684601A98DF8B8
:100F10000030FFF777FD63BA0222684601A9ADF8F9
:100F20000030FFF76FFDFFF79FFDFFF795FD6D2385
:100F300000250122684601A98DF80030FFF762FD07
:100F40000122684601A98DF80050FFF75BFD42F2CF
:100F50001403A4F58054A4B29C4208D82846FFF795
:100F6000BFFF0446FFF780FD204603B030BD684652
:100F7000022201A9ADF80050FFF744FDBDF804407E
:100F8000FFF772FD64BAA4B2204603B030BD00BFC3
:100F9000094BD9685A69D3F804C00A44944506D964
:100FA0009A6842F82100DA680132DA6070476FF01F
:100FB00003029A61704700BFE40D042001298C46AA
:100FC0000DD900210CF18042054B013A00EB820261
:100FD000C3E901C0C3E90312C3E9051119707047E1
:100FE000E40D0420044B08B19A68026009B1DA6884
:100FF0000A609869704700BFE40D042010B9054BE2
:101000001870704700220120024BDA609A61187054
:10101000704700BFE40D0420094B586970B19B680C
:1010200003EB80010020043B043953F8042F5FEAEE
:10103000927C0CBF801801308B42F6D1704700BF04
:10104000E40D042000B5C3688E46012B85B021D085
:10105000D3B9D0F800C0BCF1020F35D02A4A90F8BD
:1010600004C0002392E803006A46009027488DF8E8
:10107000041003C802908DF80C10117801326145FC
:1010800033D00133052BF8D1002318468EF80030F9
:1010900005B000BD0368022BE0D01D4B90F804C0E2
:1010A000002293E803006B4600901A48ADF8041044
:1010B00003C80290ADF80C101978013361451BD0BC
:1010C0000132062AF8D1DFE7134A017912680929AB
:1010D000ADF808204FEA12428DF80A2005D00A29FF
:1010E0000FD00B2908BF6346CED16B441B7A8EF814
:1010F0000030012005B000BD6A44137A8EF800303C
:10110000F7E70123F1E700BF689A0000709A00003A
:10111000789A0000809A0000889A0000C3688C4684
:10112000012B0FD04BB90368022B2CD00379072B6E
:101130002ED00B2B08BF05232BD0002318468CF88C
:10114000003070470368022BF0D000B5174B85B014
:1011500090F804E0002293E803006B4600901448E6
:10116000ADF8041003C80290ADF80C1019780133E3
:10117000714512D00132062AF8D1002318468CF8A6
:10118000003005B000BD0379092B0DD00B2BD4D155
:101190000A2301208CF80030704701206A44137A3A
:1011A0008CF8003005B000BD0F23F2E78C9A0000E8
:1011B000949A0000F0B50F46044600269BB0DFF875
:1011C00078C10DF1340EBCE80F00AEE80F00BCE8AA
:1011D0000F00AEE80F00BCE80F00AEE80F005CF8AF
:1011E000043B02ADCEF800309CE80F003E6085E87D
:1011F0000F00002C3BD0E3680B2B38D8A268022AE2
:1012000035D82169032932D82068042800F2928059
:10121000DFE800F02F3B52650300217E06A809910C
:101220000DF1020106920793FFF70CFF054618B176
:101230009DF80250013DEDB206A80DF10301FFF744
:101240006DFF20B19DF80330013B2B44DDB202223B
:10125000636820462B446360226001A9FFF7AAFF60
:101260000422636801985B1B2260636038601BB0D6
:10127000F0BD606800EB8000800002F01BF9E169BE
:1012800002F070F902F034FBF0E760680DEB8202C7
:1012900000EB800093688000283003FB00F01430DE
:1012A00002F008F9E16902F05DF94FF07C5102F0BB
:1012B00051F802F01DFBD9E701220DEB83036168B1
:1012C0005B6B204601FB03331344C4E9002301A9EF
:1012D000FFF770FF0223019823600F30C6E76369B0
:1012E000032B25D8DFE803F01D1A110201226368E1
:1012F00011448B402046636001A92260FFF75AFF2A
:101300000198193003232360B0E70023204601A988
:101310002360FFF74FFF01981930F3E701232046C0
:10132000F5E7637E2046002B0CBF04230223EEE783
:101330001920E7E7002099E7F09B00002DE9F04F26
:10134000C268037C0746894645688468D0F81480E3
:1013500085B0561E002B45D021462846009202F04B
:101360009FFA009A002840F0A08008F1FF339342D2
:101370009A4628BF334621467B61284628BFB2469D
:1013800002F0A4F901F09EFC06F022FE074630466A
:10139000884601F075FC02460B463846414601F08E
:1013A00013FE064650460F4601F06AFC02460B4605
:1013B0003046394601F0DEFC02460B460020574914
:1013C00006F03AFE06460F46204601F07BFC324608
:1013D0003B4601F0CFFC01F067FFC9F8000005B003
:1013E000BDE8F08F214628460092039302F058FA98
:1013F000009AA0BB08F1FF3090422ABF3346034653
:1014000030467B6101F03CFC074688462846214671
:1014100001F09EFF01F056FC02460B46384641465D
:1014200001F0A8FC07463046884601F029FC024638
:101430000B463846414601F0C7FD06460F4620469A
:1014400001F040FC02460B463046394601F0DCFA1A
:1014500001F02AFFC9F8000005B0BDE8F08F08F1DF
:1014600001009042804653D001F00AFC02460B4630
:10147000C7F8148029462046CDE9002301F068FF13
:1014800001F020FCDDE9002301F074FC0746304642
:10149000884601F0F5FB02460B463846414601F00E
:1014A00093FD06460F462846CAE708F1010393421A
:1014B00028D01846009301F0E3FB82468B46009B40
:1014C0007B612946204602F001F901F0FBFB06F0A2
:1014D0007FFD52465B4601F04DFC0746304688468C
:1014E00001F0CEFB02460B463846414601F06CFD4A
:1014F00002460B460020094906F09EFD06460F46AF
:10150000284662E70021002200238A469346D7E757
:101510004FF0000800220023AAE700BF000024408B
:101520002DE9F04302290E46804683B039D8FFF7F3
:1015300093FA202301AF0122394668468DF8003026
:10154000FFF760FA46F62043022239466846ADF8B6
:101550000030FFF757FAFFF787FAFEB144464FF025
:101560006D094FF0000804EB8606FFF775FA0122BB
:10157000394668468DF80090FFF744FA0122394653
:1015800068468DF80080FFF73DFA0020FFF7A8FCC1
:1015900044F8040BFFF768FAA642E6D103B0BDE8B1
:1015A000F083FFF759FA5F2301AF012239466846FD
:1015B0008DF800300624FFF725FA4FF000090122CC
:1015C000394668468DF80090FFF71CFA013CF6D1C9
:1015D000023EA8F104050020FFF782FC0134B4426A
:1015E00045F8040FF7D14FF04430FFF779FC03467C
:1015F0004FF0443048F82430FFF772FCA500043562
:1016000048F8050003B0BDE8F043FFF72DBA00BF6E
:10161000F0B5524C83B02378012B3BD004460D46E5
:10162000FFF71AFA20230122684601A98DF800303D
:10163000FFF7E8F963BA0222684601A9ADF8003065
:10164000FFF7E0F9FFF710FAFFF706FA2D23012262
:10165000684601A98DF80030FFF7D4F942F214036F
:10166000A4F58054A4B29C420CD96BBA02226846FD
:1016700001A9ADF80030FFF7C5F903B0BDE8F040AF
:10168000FFF7F2B92846FFF72BFC03B0BDE8F040A6
:10169000FFF7EAB9B0F5085F04D36FF00403A36164
:1016A00003B0F0BDD4F80CE0BEF1000F29D02369DF
:1016B00000221E468708C0F3870502E0013272450A
:1016C0001FD093F800C004336545F7D1636956F81D
:1016D0002200D4F804C0734461F31F20634546F828
:1016E000220015D23B0603F0FE4321F07F41A268A1
:1016F0000B4343F0004342F82E30E3680133E360CC
:10170000CEE76369D4F804C003EB0E02624503D34D
:101710006FF00303A361C3E7820820691506061F63
:10172000266100F8042C50F8042C013361F31F22C9
:1017300040F8042C05F0FE4521F07F4163617344BD
:1017400045EA0102634542F00042E1D2A36843F852
:101750002E20E3680133E360A2E700BFE40D04201C
:1017600030B5204C83B02378012B04D003B0BDE802
:101770003040FFF7C3BBD4F80CC0BCF1000F12D04F
:10178000236900221D46C0F3870E02E00132944512
:1017900009D0197804337145F8D155F82200C0F307
:1017A000172003B030BD0190FFF7A8FB6169E26824
:1017B00063680A449A4211D22269019BA2F1040C87
:1017C0009B08C4F810C002F8043C52F8043C0131F4
:1017D00060F31F2342F8043C6161E2E76FF003030A
:1017E000A361DEE7E40D042010B59CB07022164919
:1017F000684603F055FC0022144B6C46C3E90522F1
:10180000DA601A70FFF730F9616834F8080BFFF7F7
:10181000FFFE1CAB9C42F7D140F20440FFF7A0FF53
:10182000A0F5AA43013B012B04D9B0F5AA4F06D07D
:101830001CB010BD0122064B1A701CB010BD002256
:10184000034B1A701CB010BD9C9C0000E40D0420DA
:10185000000E042010B5044682B04FF400500191F0
:10186000FFF77EFF019904F02003012919D0002B16
:1018700040F0200224F0200314BF1046234640F419
:10188000002113F4002223F400221CBF0846134653
:1018900020EA03014FF4005002B0BDE81040FFF70A
:1018A000B7BE002B20F0200224F0200314BF104606
:1018B000234620F4002113F4002223F400221CBF4D
:1018C0000846134643EA00014FF4005002B0BDE859
:1018D0001040FFF79DBE00BF40EA810142F2F020B8
:1018E000FFF796BE10B504464FF40050FFF738FFDF
:1018F0002378002B4AD020F020014FF40050FFF74E
:1019000087FE4FF40650FFF72BFF01466378012B4B
:10191000A37808BF40F00101012BE37808BF41F034
:101920001001012B237908BF41F00401012B637AD8
:1019300008BF41F02001012BA37A08BF41F4807158
:10194000012BE37A08BF41F00201012B237B08BF82
:1019500041F00801012B08BF41F040014FF406504F
:10196000FFF756FEA1796379B1FA81F1490949007F
:101970000BB941F00101E37942F25000BDE810409B
:10198000012B08BF41F00401FFF742BE40F02001E7
:10199000B3E700BF10B5044642F250102168FFF7CC
:1019A00037FE616842F25810FFF732FEA16842F23A
:1019B0005410FFF72DFEE16842F25C10FFF728FE9D
:1019C000BDE810404FF4803142F20C00FFF720BE1A
:1019D00030B50A290546964685B01AD802298C46A4
:1019E0000BD90831C90041EA0E01BDB942F2F80035
:1019F00005B0BDE83040FFF70BBE6C460F4BBEF1A3
:101A0000040F0FCB07C424F8023B4FEA13432370A3
:101A10000BD9F82141EA0E01002DE7D042F2F40083
:101A200005B0BDE83040FFF7F3BD0CEB8C0CEC4487
:101A3000F4449CF80010C900ECE700BF0C9D0000C6
:101A400020B34369033B082B1DD88369052B1AD8A3
:101A500010B5044642F2FC002168FFF7D9FDE268A8
:101A6000237C6168012B41EA421108BF41F010015B
:101A700042F2F000FFF7CCFDD4E905120020FFF799
:101A8000A7FF002010BD6FF0010070476FF002004B
:101A9000704700BF036810B5022B04463AD0032BF1
:101AA00019D042F24800216BFFF7B2FD2379627929
:101AB000A3F10103B3FA83F35B0921685B01012AF7
:101AC00008BF43F0100342F21400BDE8104043EA9F
:101AD0004101FFF79DBDA16842F21800FFF798FD94
:101AE000E16842F21C00FFF793FD216942F22000F9
:101AF000FFF78EFD616942F22800FFF789FDA169B9
:101B000042F22400FFF784FD42F22C00E169FFF766
:101B10007FFDCBE7216A42F23000FFF779FD616A71
:101B200042F23C00FFF774FDA16A42F23800FFF771
:101B30006FFD42F23400E16AFFF76AFDB6E700BFCD
:101B4000D0E90432A3F10103B3FA83F310B50446DC
:101B500081695B091B03012A4FEA410108BF43F079
:101B6000010301F4FF71194342F21000FFF750FD29
:101B700004F15000FFF764FF2046FFF70BFF04F16C
:101B80001C00BDE81040FFF785BF00BF38B5254BEE
:101B900005461B780C46012B24D00846002101F095
:101BA00075FE30B1BDE83840002142F23000FFF749
:101BB0002FBD28464FF0994101F0D4FC214601F099
:101BC00085FD4FF07C5101F0C5FB01F091FE164BF5
:101BD0000146984228BF1946BDE8384042F230001D
:101BE000FFF716BD0846002101F050FE0028D9D1AC
:101BF00028464FF09D4101F0B5FC214601F066FDFD
:101C00004FF07C5101F0A6FB01F072FE6FF07F43B4
:101C10009842014628BF1946BDE8384042F23000DC
:101C2000FFF7F6BC000E0420FFFF0F0038B51D4B78
:101C300005461B780C46012B19D00846002101F0FF
:101C400025FE08B1002038BD28464FF0994101F02B
:101C500089FC214601F03AFD4FF07C5101F07AFBFE
:101C600001F046FE104B984228BF184638BD084682
:101C7000002101F00BFE0028E4D128464FF09D41E1
:101C800001F070FC214601F021FD4FF07C5101F084
:101C900061FB01F02DFE6FF07F43984228BF18468C
:101CA00038BD00BF000E0420FFFF0F0010B5044632
:101CB000D0E9023019016368626941EA8311237E29
:101CC00041EAC00141EA82010BB941F00101637EA2
:101CD0000BB941F002012368C3B942F22810FFF7A3
:101CE00097FCA18B638B01F03F01C3F30B0342F21E
:101CF000201043EA0131FFF78BFC216942F22410E6
:101D0000BDE8104041F02001FFF782BC42F23410E0
:101D1000FFF77EFCA18B638B01F03F01C3F30B0344
:101D200042F22C1043EA0131FFF772FC216942F2C2
:101D30003010BDE8104041F02001FFF769BC00BF42
:101D400010B5017E437EB1FA81F14909044649008C
:101D50000BB941F0010123696268042B18BF41EA05
:101D6000C301D4E902304FEA832343EA401343EA34
:101D70004233226808BF41F00401194352B942F2CC
:101D8000EC00FFF745FC616942F2E400BDE8104059
:101D9000FFF73EBC42F2E800FFF73AFC616942F20D
:101DA000E000BDE81040FFF733BC00BF00B583B0D2
:101DB0000190FFF77BFF0198203003B05DF804EB42
:101DC000FFF7BEBF10B5044642F24400FFF7C8FC5F
:101DD000237CE268012B00F08001637C41EA020170
:101DE00008BF41F01001A268012BD4E900304FEA8E
:101DF000033343EA002343EA823308BF41F0400142
:101E0000194342F24400FFF703FC237D03B910BDE0
:101E10004FF40050FFF7A4FCBDE8104040F48031BF
:101E20004FF40050FFF7F4BB10B5044682B042F205
:101E3000A8100191FFF794FC20F4F95342F2A81086
:101E4000019923F01F0344EA0121194302B0BDE8C0
:101E50001040FFF7DDBB00BF10B5044642F244005E
:101E6000FFF77EFC6368032B15D020F0800142F25F
:101E70004400FFF7CDFB616809052268237A41EA37
:101E80000211012B42F2D000BDE8104008BF41F022
:101E90000101FFF7BDBB40F0800142F24400FFF7B3
:101EA000B7FB0021E9E700BF10B50446D4E90123E0
:101EB00021681B0443EA0223194342F2A810FFF7EA
:101EC000A7FB04F10C00FFF77DFFA18C42F2A800F4
:101ED000FFF79EFBE18C42F2AC00FFF799FB218DEE
:101EE00042F2B000FFF794FB618D42F2B400FFF7BD
:101EF0008FFB04F12C00FFF7AFFFD4E90E1294F82A
:101F00004030C90141EA021142F2C410BDE810405C
:101F1000012B08BF41F00101FFF77ABB10B500218A
:101F2000044642F20800FFF773FB42F2D810FFF7B5
:101F300017FCD4E901239B0143EA422300F03F014F
:101F4000194342F2D810FFF763FB216942F2E01017
:101F50000904FFF75DFB2178E368A1F10101B1FA03
:101F600081F1BDE8104049095B0342F2080043EAF1
:101F7000C121FFF74DBB00BFA1F10101B1FA81F111
:101F80004303490942F2080043EAC121FFF740BB7D
:101F900008B54FF40850FFF7E3FB000C08BD00BF85
:101FA00038B5044642F20800FFF7DAFB0021054687
:101FB00042F20800FFF72CFB42F2D810FFF7D0FBEB
:101FC000236820F03F01194342F2D81041F0080184
:101FD000FFF71EFBE3799BB92379A168A3F1010305
:101FE000B3FA83F35B0943EA012142F20400FFF7ED
:101FF0000FFB2946BDE8384042F20800FFF708BB56
:10200000002142F20400FFF703FB002142F26400CA
:10201000FFF7FEFAE0E700BF032800D9704701216F
:1020200081404FF48660FFF7F3BA00BF92B170B5FC
:1020300004460D468618214642F2D410FFF7E8FA0E
:10204000013442F2700055F8041BFFF7E1FAA64292
:10205000F1D170BD704700BF026870B50546032A14
:102060000BD8DFE802F002261A0ED0E9012142F275
:10207000CC1042EA0141FFF7CBFA2A7B012A23D098
:1020800070BDD0E9012142F2E41042EA0141FFF7BC
:10209000BFFA2A7B012AF3D116E0D0E9012142F2EE
:1020A000D01042EA0141FFF7B3FA2A7B012AE7D1B7
:1020B0000AE0D0E9012142F2E81042EA0141FFF7CB
:1020C000A7FA2A7B012ADBD1AA68002AD8D06C683B
:1020D0002D69A618214642F2D410FFF799FA01346F
:1020E00042F2700055F8041BFFF792FAB442F1D1A6
:1020F00070BD00BF014642F25400FFF789BA00BF2D
:1021000010B504464FF40060FFF72AFB012C14BF02
:1021100020F0010140F0010189B24FF40060BDE8F8
:102120001040FFF775BA00BF38B505464FF482601E
:10213000FFF716FB4408420002F4007204F48074B6
:10214000C3B214431C434FF4826044F02001FFF7F4
:102150005FFA42F2BC00FFF703FB012D13D040F001
:10216000040142F2BC00FFF753FA4FF42160FFF77D
:10217000F7FA8305F9D524F020014FF48260BDE819
:102180003840FFF745BA20F0040142F2BC00FFF7E7
:102190003FFA4FF42160FFF7E3FA8205F9D524F006
:1021A00020014FF48260BDE83840FFF731BA00BF2C
:1021B00038B504464FF42160FFF7D2FAE37C0546B8
:1021C000012B35D0237C012B48D0A37C012B61D07F
:1021D000D4E902139B0103F4707301F03F0119432A
:1021E0004FF48160FFF714FA0A20FEF755FCD4E99A
:1021F000003140F2144043EA8101FFF709FAE37C21
:102200000BB925F00405237C0BB925F00205A37C4E
:102210000BB925F001054CF6143140F60C20FFF700
:10222000F7F92946BDE838404FF42160FFF7F0B9CF
:102230004CF6143140F60C2045F00405FFF7E8F9A0
:1022400029464FF42160FFF7E3F94FF42160FFF7CF
:1022500087FA4105F9D5237C012BB6D14CF6143110
:1022600040F60C2045F00205FFF7D2F929464FF45D
:102270002160FFF7CDF94FF42160FFF771FA820575
:10228000F9D5607C012818BF0020FFF74DFFA37C23
:10229000012B9DD14CF6143140F60C2045F0010580
:1022A000FFF7B6F929464FF42160FFF7B1F94FF473
:1022B0002160FFF755FAC305F9D589E710B543F258
:1022C000080343F20C04012818BF1C4682B02046C4
:1022D000CDE90021FFF744FA009A0199012A0CBFC9
:1022E000014320EA0101204602B0BDE81040FFF79B
:1022F0008FB900BF014643F20400FFF789B900BF60
:1023000043F2100343F2140200B5002814BF104634
:10231000184683B00191FFF723FA0199084214BFD0
:102320000120002003B000BD10B504460020216844
:10233000FFF76EF961680420FFF76AF9A1680C20C5
:10234000FFF766F9E1680820FFF762F921691420B8
:10235000BDE81040FFF75CB9014642F21810FFF7E4
:1023600057B900BF08B5002142F21C10FFF750F921
:10237000BDE80840012142F21C10FFF749B900BF37
:1023800070B506464FF48060FFF7EAF944F2441551
:10239000A84222D0002E4FF0010417DC4FF48060D9
:1023A000FFF7DEF9A84215D04FF48060FFF7D8F9A7
:1023B000A84204F10204F1D1204670BD4FF48060C0
:1023C000FFF7CEF9A84204F10104F5D0A642F5D2F8
:1023D000204670BD0134204670BD0124ECE700BFEB
:1023E00008B5FEF751FBC820FEF756FBFEF744FB8D
:1023F000BDE808404FF4FA70FEF74EBB2DE9F04FF0
:102400000446D1B0C74E0DF1340E0D460FCEAEE8E6
:102410000F000FCEAEE80F0006F11C0C56F8043B7F
:102420000DF11C08CEF800300FCEA8E80F0096E89A
:10243000030016AF88E80300BCE80F000FC7BCE834
:102440000F000FC79CE80F0087E80F00002C00F07A
:102450008F8266680021304601F018FA002840F0AB
:102460008482002D00F08482AF49E06801F036FAE2
:1024700063698046082B00F00A820DAA52F8239067
:10248000304600F01FFC0022A84B00F073FC06460B
:1024900048460F4600F0F4FB02460B4630463946EC
:1024A00000F092FD00F000FFA149074601F002FA9A
:1024B00081463846B9F1000F40F0D6819D4901F0C0
:1024C000F9F906463846002E00F02682994901F0B7
:1024D000FDF8994901F046F8014600F03BFF01265E
:1024E00001F006FA8719F74040F2FF7343F20C003F
:1024F0009F4228BF1F46FFF733F9009043F20C00BC
:10250000FFF72EF940F0020143F20C00FFF780F8CC
:102510004FF40050FFF724F920F4471121F47F51C4
:1025200041F400214FF4005041F02001FFF770F812
:102530000023824A03A8CDF8153004930392FFF7D5
:10254000D1F90723CDE93769399304F110060DF568
:102550008E7E04F13009F44630687168B268F36821
:1025600010364E45ACE80F000EF1100EF3D14FF4CB
:10257000007330680126CEF80000359340F6021350
:10258000369302233A9340F20113ADF8EC306C4BD2
:10259000D4F808A01B7800215046B3420CBF4FF07E
:1025A0001E094FF01A09CDE9336601F06FF90028D2
:1025B00040F07D81A9F12001C9F1200326FA03F33F
:1025C00006FA01F1194306FA09F000F08DFF2168BF
:1025D00000F0C8FF514601F079F84FF07C5100F04F
:1025E000B9FE01F085F9B9F11A0F14BF6FF07F43FE
:1025F000544B984228BF18460026CDE9420733A81D
:10260000CDE94466FFF79CFA012314222493ADF828
:10261000A4308DF8A8302423B8FA88F0239203223E
:102620002293A36B40092693636B216C2890279219
:10263000E06B626C25932DAB2C9607C322A8CDE9E5
:1026400030662B963296FFF72FFC4FF40050FFF7C1
:1026500087F840F4881141F464614FF40050FEF7AC
:10266000D7FF4FF40050FFF77BF840F481414FF45F
:102670000050FEF7CDFF1920FEF70EFA4FF4005080
:10268000FFF76EF840F401414FF40050FEF7C0FF31
:1026900043F21400FFF764F88107F9D54FF40050B6
:1026A000FFF75EF820F4414121F080014FF4005023
:1026B000FEF7AEFF022143F20400FEF7A9FF42F24B
:1026C0007800FFF74DF8074642F27C00FFF748F824
:1026D000064642F2A810FFF743F820F4F95121F022
:1026E0001F0141F4807141F0010142F2A810FEF790
:1026F0008FFF4FF40050FFF733F840F481414FF45F
:102700000050FEF785FF1920FEF7C6F94FF4005080
:10271000FFF726F840F401414FF40050FEF778FF30
:1027200012E000BF1C9D00000050C34B008096408B
:10273000000020420000484300E0FF440101010086
:10274000000E0420FFFF0F0043F21400FFF708F80B
:102750008207F9D54FF40050FFF702F820F4414109
:1027600021F080014FF40050FEF752FF022143F2A6
:102770000400FEF74DFF42F27800FEF7F1FF8046BD
:1027800042F27C00FEF7ECFF7B4B17F4003F47EA78
:10279000030208BF3A4646EA030116F4003F18BF99
:1027A0000E4618F4003F48EA030A08BFC24610F478
:1027B000003F08BF804643EA0003104618BF984612
:1027C00000F07CFE0746704200F078FE394606466F
:1027D000384600F0C7FE31468146304600F0C2FE62
:1027E0000146484600F0B6FD8146CAF1000000F0FF
:1027F00065FE8246404600F061FE514683463846FB
:1028000000F0B0FE59460190304600F0ABFED4F81F
:1028100004800146019800F09DFD494600F056FFF6
:10282000414600F09FFE59460190384600F09AFE5E
:1028300051460746304600F095FE0146384600F006
:1028400087FD494600F042FF414600F08BFEA36C35
:10285000064673BB019B68602B60009B9B0750D5AD
:10286000002051B0BDE8F08F444900F02FFF4449EB
:1028700000F078FE014600F06DFD4FF0010901F017
:1028800037F800EB09074E4627FA09F72CE6636A8A
:10289000D4F818900A2B3FF4F3AD0DEB83039A6D37
:1028A000A36A07A951F8233013449944E8E50020AE
:1028B000A2E6019F3946384600F054FE31460446F0
:1028C000304600F04FFE0146204600F043FD00F088
:1028D000F9F905F01FFC00F0E7FC034638462B60D1
:1028E00000F0F0F980468946304600F0EBF94B469F
:1028F000424605F06BFB00F0D7FC009B68609B072D
:10290000AED443F20C00FEF72BFF20F0020143F29D
:102910000C00FEF77DFEA3E71A4900F0CBFF8146CD
:102920003846B9F1000F11D0164900F0CFFE144916
:1029300000F018FE014600F00DFD4FF0010900F017
:10294000D7FF00EB090727FA09F7CDE50E4900F09C
:10295000BDFE0B4900F006FE014600F0FBFC00F056
:10296000C7FF471C4E467F08BEE56FF0010078E7C1
:102970006FF0020075E700BF0000FCFF000020427E
:1029800000E0FF440000A0430000C844FEE700BF91
:1029900008B5084A084B934208D2013AD21A22F0ED
:1029A000030218460549043202F07AFB00F008F8E9
:1029B000FDF71AFCC405042000000420C4A0000098
:1029C00044F659020A4BDA605A6942F003025A612E
:1029D000EFF3108272B64FF4E021064B0648986080
:1029E0005962BFF36F8FBFF34F8F82F31088704728
:1029F00000C0044000ED00E00000000081F0004154
:102A000002E000BF83F0004330B54FEA41044FEAD3
:102A1000430594EA050F08BF90EA020F1FBF54EA6E
:102A2000000C55EA020C7FEA645C7FEA655C00F00A
:102A3000E2804FEA5454D4EB5555B8BF6D420CDDDB
:102A40002C4480EA020281EA030382EA000083EA5E
:102A5000010180EA020281EA0303362D88BF30BDFE
:102A600011F0004F4FEA01314FF4801C4CEA113154
:102A700002D0404261EB410113F0004F4FEA0333B3
:102A80004CEA133302D0524263EB430394EA050F3E
:102A900000F0A780A4F10104D5F1200E0DDB02FAAD
:102AA0000EFC22FA05F2801841F1000103FA0EF241
:102AB000801843FA05F359410EE0A5F120050EF107
:102AC000200E012A03FA0EFC28BF4CF0020C43FA38
:102AD00005F3C01851EBE37101F0004507D54FF045
:102AE000000EDCF1000C7EEB00006EEB0101B1F595
:102AF000801F1BD3B1F5001F0CD349085FEA3000DB
:102B00004FEA3C0C04F101044FEA445212F5800FE5
:102B100080F09A80BCF1004F08BF5FEA500C50F182
:102B2000000041EB045141EA050130BD5FEA4C0C65
:102B3000404141EB0101013C28BFB1F5801FE9D2C2
:102B400091F0000F04BF01460020B1FA81F308BFE5
:102B50002033A3F10B03B3F120020CDA0C3208DDB1
:102B600002F1140CC2F10C0201FA0CF021FA02F18C
:102B70000CE002F11402D8BFC2F1200C01FA02F1FC
:102B800020FA0CFCDCBF41EA0C019040E41AA2BF21
:102B900001EB0451294330BD6FEA04041F3C1CDAE9
:102BA0000C340EDC04F11404C4F1200220FA04F009
:102BB00001FA02F340EA030021FA04F345EA0301B3
:102BC00030BDC4F10C04C4F1200220FA02F001FA75
:102BD00004F340EA0300294630BD21FA04F02946F7
:102BE00030BD94F0000F83F4801306BF81F4801190
:102BF0000134013D4EE77FEA645C18BF7FEA655C03
:102C000029D094EA050F08BF90EA020F05D054EAD4
:102C1000000C04BF1946104630BD91EA030F1EBFD9
:102C20000021002030BD5FEA545C05D140004941DD
:102C300028BF41F0004130BD14F580043CBF01F5D0
:102C4000801130BD01F0004545F0FE4141F47001B6
:102C50004FF0000030BD7FEA645C1ABF1946104691
:102C60007FEA655C1CBF0B46024650EA013406BF92
:102C700052EA033591EA030F41F4002130BD00BF51
:102C800090F0000F04BF0021704730B54FF480640E
:102C900004F132044FF000054FF0000150E700BF8F
:102CA00090F0000F04BF0021704730B54FF48064EE
:102CB00004F1320410F0004548BF40424FF00001DB
:102CC0003EE700BF42004FEAE2014FEA31014FEA1E
:102CD00002701FBF12F07F4393F07F4F81F060516D
:102CE000704732F07F4208BF704793F07F4F04BFB8
:102CF00041F40021704730B54FF4607401F0004595
:102D000021F000411CE700BF50EA010208BF7047F4
:102D100030B54FF000050AE050EA010208BF7047E5
:102D200030B511F0004502D5404261EB41014FF44E
:102D3000806404F132045FEA915C3FF4D8AE4FF056
:102D400003025FEADC0C18BF03325FEADC0C18BF39
:102D5000033202EBDC02C2F1200300FA03FC20FA8A
:102D600002F001FA03FE40EA0E0021FA02F11444D7
:102D7000BDE600BF70B54FF0FF0C4CF4E06C1CEAF0
:102D800011541DBF1CEA135594EA0C0F95EA0C0F61
:102D900000F0DEF82C4481EA030621EA4C5123EAD4
:102DA0004C5350EA013518BF52EA033541F4801103
:102DB00043F4801338D0A0FB02CE4FF00005E1FBB6
:102DC00002E506F00042E0FB03E54FF00006E1FB00
:102DD00003569CF0000F18BF4EF0010EA4F1FF0443
:102DE000B6F5007F64F5407404D25FEA4E0E6D4183
:102DF00046EB060642EAC62141EA55514FEAC52094
:102E000040EA5E504FEACE2EB4F1FD0C88BFBCF50F
:102E1000E06F1ED8BEF1004F08BF5FEA500E50F1C0
:102E2000000041EB045170BD06F0004646EA010186
:102E300040EA020081EA0301B4EB5C04C2BFD4EBB8
:102E40000C0541EA045170BD41F480114FF0000EB1
:102E5000013C00F3AB8014F1360FDEBF002001F01F
:102E6000004170BDC4F10004203C35DA0C341BDC99
:102E700004F11404C4F1200500FA05F320FA04F06B
:102E800001FA05F240EA020001F0004221F000419F
:102E900010EBD37021FA04F642EB06015EEA430E12
:102EA00008BF20EAD37070BDC4F10C04C4F1200542
:102EB00000FA04F320FA05F001FA04F240EA0200F5
:102EC00001F0004110EBD37041F100015EEA430EC6
:102ED00008BF20EAD37070BDC4F1200500FA05F2E6
:102EE0004EEA020E20FA04F301FA05F243EA020365
:102EF00021FA04F001F0004121FA04F220EA020074
:102F000000EBD3705EEA430E08BF20EAD37070BDB9
:102F100094F0000F0FD101F00046400041EB010199
:102F200011F4801F08BF013CF7D041EA060195F07B
:102F3000000F18BF704703F00046520043EB030335
:102F400013F4801F08BF013DF7D043EA0603704722
:102F500094EA0C0F0CEA135518BF95EA0C0F0CD02D
:102F600050EA410618BF52EA4306D1D181EA030173
:102F700001F000414FF0000070BD50EA410606BF6D
:102F80001046194652EA430619D094EA0C0F02D1B2
:102F900050EA013613D195EA0C0F05D152EA0336F7
:102FA0001CBF104619460AD181EA030101F0004115
:102FB00041F0FE4141F470014FF0000070BD41F05E
:102FC000FE4141F4780170BD70B54FF0FF0C4CF438
:102FD000E06C1CEA11541DBF1CEA135594EA0C0F57
:102FE00095EA0C0F00F0A7F8A4EB050481EA030EA4
:102FF00052EA03354FEA013100F088804FEA03338B
:103000004FF0805545EA131343EA12634FEA022258
:1030100045EA111545EA10654FEA00260EF0004119
:103020009D4208BF964244F1FD0404F5407402D26B
:103030005B084FEA3202B61A65EB03055B084FEAFC
:1030400032024FF480104FF4002CB6EB020E75EBF9
:10305000030E22BFB61A754640EA0C005B084FEA21
:103060003202B6EB020E75EB030E22BFB61A75469E
:1030700040EA5C005B084FEA3202B6EB020E75EBE9
:10308000030E22BFB61A754640EA9C005B084FEA61
:103090003202B6EB020E75EB030E22BFB61A75466E
:1030A00040EADC0055EA060E18D04FEA051545EA5D
:1030B00016754FEA06164FEAC30343EA52734FEA06
:1030C000C2025FEA1C1CC0D111F4801F0BD141EA7F
:1030D00000014FF000004FF0004CB6E711F4801FE4
:1030E00004BF01430020B4F1FD0C88BFBCF5E06FC4
:1030F0003FF6AFAEB5EB030C04BFB6EB020C5FEAD4
:10310000500C50F1000041EB045170BD0EF0004E28
:103110004EEA113114EB5C04C2BFD4EB0C0541EA5A
:10312000045170BD41F480114FF0000E013C90E657
:1031300045EA060E8DE60CEA135594EA0C0F08BF1B
:1031400095EA0C0F3FF43BAF94EA0C0F0AD150EA1A
:1031500001347FF434AF95EA0C0F7FF425AF1046AD
:1031600019462CE795EA0C0F06D152EA03353FF4D5
:10317000FDAE1046194622E750EA410618BF52EA52
:1031800043067FF4C5AE50EA41047FF40DAF52EA26
:1031900043057FF4EBAE12E74FF0FF3C06E000BFC3
:1031A0004FF0010C02E000BF4FF0010C4DF804CDD0
:1031B0004FEA410C7FEA6C5C4FEA430C18BF7FEA90
:1031C0006C5C1BD001B050EA410C0CBF52EA430CBE
:1031D00091EA030F02BF90EA020F0020704710F13E
:1031E000000F91EA030F58BF994208BF90422CBFCD
:1031F000D8176FEAE37040F0010070474FEA410CC6
:103200007FEA6C5C02D150EA013C07D14FEA430CE3
:103210007FEA6C5CD6D152EA033CD3D05DF8040B54
:10322000704700BF8446104662468C461946634686
:1032300000E000BF01B5FFF7B7FF002848BF10F15D
:10324000000F01BD4DF808EDFFF7F4FF0CBF0120A2
:1032500000205DF808FB00BF4DF808EDFFF7EAFF1E
:1032600034BF012000205DF808FB00BF4DF808EDD9
:10327000FFF7E0FF94BF012000205DF808FB00BFCE
:103280004DF808EDFFF7CEFF94BF012000205DF858
:1032900008FB00BF4DF808EDFFF7C4FF34BF012065
:1032A00000205DF808FB00BF4FEA4102B2F1E043A5
:1032B00024BFB3F5001CDCF1FE5C0DD901F0004C1D
:1032C0004FEAC0024CEA5070B2F1004F40EB83006D
:1032D00008BF20F00100704711F0804F21D113F199
:1032E0003872BCBF01F00040704741F480114FEAD2
:1032F0005252C2F11802C2F1200C10FA0CF320FA5B
:1033000002F018BF40F001004FEAC1234FEAD32377
:1033100003FA0CFC40EA0C0023FA02F34FEA4303E1
:10332000CCE77FEA625307D150EA01331EBF4FF06A
:10333000FE4040F44000704701F0004040F0FE4085
:1033400040F40000704700BF80F0004002E000BF82
:1033500081F0004142001FBF5FEA410392EA030F80
:103360007FEA226C7FEA236C6AD04FEA1262D2EBCA
:103370001363C1BFD218414048404140B8BF5B42CF
:10338000192B88BF704710F0004F40F4000020F068
:103390007F4018BF404211F0004F41F4000121F07E
:1033A0007F4118BF494292EA030F3FD0A2F10102C8
:1033B00041FA03FC10EB0C00C3F1200301FA03F106
:1033C00000F0004302D5494260EB4000B0F5000F29
:1033D00013D3B0F1807F06D340084FEA310102F1E8
:1033E0000102FE2A51D2B1F1004F40EBC25008BF9A
:1033F00020F0010040EA03007047490040EB000064
:10340000013A28BFB0F5000FEDD2B0FA80FCACF164
:10341000080CB2EB0C0200FA0CF0AABF00EBC25091
:1034200052421843BCBFD0401843704792F0000F7F
:1034300081F4000106BF80F400000132013BB5E7D2
:103440004FEA41037FEA226C18BF7FEA236C21D048
:1034500092EA030F04D092F0000F08BF08467047AD
:1034600090EA010F1CBF0020704712F07F4F04D17B
:10347000400028BF40F00040704712F100723CBF8E
:1034800000F50000704700F0004343F0FE4040F4B8
:10349000000070477FEA226216BF08467FEA236376
:1034A0000146420206BF5FEA412390EA010F40F461
:1034B000800070474FF0000304E000BF10F00043AD
:1034C00048BF40425FEA000C08BF704743F0964394
:1034D00001464FF000001CE050EA010208BF7047AF
:1034E0004FF000030AE000BF50EA010208BF704736
:1034F00011F0004302D5404261EB41015FEA010C4B
:1035000002BF84460146002043F0B64308BFA3F142
:103510008053A3F50003BCFA8CF2083AA3EBC25324
:1035200010DB01FA02FC634400FA02FCC2F1200243
:10353000BCF1004F20FA02F243EB020008BF20F07A
:103540000100704702F1200201FA02FCC2F12002E0
:1035500050EA4C0021FA02F243EB020008BF20EAD5
:10356000DC7070474FF0FF0C1CEAD0521EBF1CEA03
:10357000D15392EA0C0F93EA0C0F6FD01A4480EAF1
:10358000010C400218BF5FEA41211ED04FF00063DA
:1035900043EA501043EA5111A0FB01310CF0004006
:1035A000B1F5000F3EBF490041EAD3715B0040EA2C
:1035B000010062F17F02FD2A1DD8B3F1004F40EBFC
:1035C000C25008BF20F00100704790F0000F0CF0CF
:1035D000004C08BF49024CEA502040EA51207F3A93
:1035E000C2BFD2F1FF0340EAC250704740F400006E
:1035F0004FF00003013A5DDC12F1190FDCBF00F05F
:1036000000407047C2F10002410021FA02F1C2F10C
:10361000200200FA02FC5FEA310040F1000053EAA8
:103620004C0308BF20EADC70704792F0000F00F0F6
:10363000004C02BF400010F4000F013AF9D040EAFC
:103640000C0093F0000F01F0004C02BF490011F490
:10365000000F013BF9D041EA0C018FE70CEAD1538E
:1036600092EA0C0F18BF93EA0C0F0AD030F0004C0E
:1036700018BF31F0004CD8D180EA010000F00040C2
:10368000704790F0000F17BF90F0004F084691F080
:10369000000F91F0004F14D092EA0C0F01D14202BA
:1036A0000FD193EA0C0F03D14B0218BF084608D183
:1036B00080EA010000F0004040F0FE4040F40000CD
:1036C000704740F0FE4040F4400070474FF0FF0C60
:1036D0001CEAD0521EBF1CEAD15392EA0C0F93EAA7
:1036E0000C0F69D0A2EB030280EA010C49024FEAF9
:1036F000402037D04FF0805343EA111143EA1013B2
:103700000CF000408B4238BF5B0042F17D024FF469
:10371000000C8B4224BF5B1A40EA0C00B3EB510F44
:1037200024BFA3EB510340EA5C00B3EB910F24BF2D
:10373000A3EB910340EA9C00B3EBD10F24BFA3EBB2
:10374000D10340EADC001B0118BF5FEA1C1CE0D17A
:10375000FD2A3FF650AF8B4240EBC25008BF20F02D
:10376000010070470CF0004C4CEA50207F32C2BF81
:10377000D2F1FF0340EAC250704740F400004FF01E
:103780000003013A37E792F0000F00F0004C02BF4F
:10379000400010F4000F013AF9D040EA0C0093F019
:1037A000000F01F0004C02BF490011F4000F013B73
:1037B000F9D041EA0C0195E70CEAD15392EA0C0FDB
:1037C00008D142027FF47DAF93EA0C0F7FF470AF13
:1037D000084676E793EA0C0F04D14B023FF44CAF56
:1037E00008466EE730F0004C18BF31F0004CCAD1EB
:1037F00030F000427FF45CAF31F000437FF43CAF27
:103800005FE700BF4FF0FF3C06E000BF4FF0010C48
:1038100002E000BF4FF0010C4DF804CD4FEA40022A
:103820004FEA41037FEA226C18BF7FEA236C11D074
:1038300001B052EA530C18BF90EA010F58BFB2EB27
:10384000030088BFC81738BF6FEAE17018BF40F0A7
:10385000010070477FEA226C02D15FEA402C05D15B
:103860007FEA236CE4D15FEA412CE1D05DF8040BE0
:10387000704700BF844608466146FFE70FB5FFF773
:10388000C9FF002848BF10F1000F0FBD4DF808ED2B
:10389000FFF7F4FF0CBF012000205DF808FB00BF1C
:1038A0004DF808EDFFF7EAFF34BF012000205DF876
:1038B00008FB00BF4DF808EDFFF7E0FF94BF0120C3
:1038C00000205DF808FB00BF4DF808EDFFF7D2FFC0
:1038D00094BF012000205DF808FB00BF4DF808ED03
:1038E000FFF7C8FF34BF012000205DF808FB00BFD0
:1038F00042000ED2B2F1FE4F0BD34FF09E03B3EB5A
:10390000126209D44FEA002343F0004323FA02F085
:1039100070474FF00000704712F1610F01D1420271
:1039200002D14FF0FF3070474FF00000704700BFEA
:1039300053B94AB9002908BF00281CBF4FF0FF3116
:103940004FF0FF3000F06AB9ADF1080C6DE904CE1C
:1039500000F006F8DDF804E0DDE9022304B070476A
:103960002DE9F047089F154604468E461E46002B5B
:1039700040F0D3808A424ED9B2FA82FCBCF1000FEB
:1039800002FA0CF3CCF1200E18BF1D4620FA0EFEF1
:1039900001FA0CF34EEA030E08BF8E464FEA1548B3
:1039A000BEFBF8F100FA0CF318BF1C4608FB11EE41
:1039B000A8B201FB00F3220C42EA0E42934206D960
:1039C000AA1801F1FF3E01D293421ED87146D21AC5
:1039D000B2FBF8F308FB13225843A4B244EA0244B2
:1039E000A04206D92C1903F1FF3201D2A0420FD810
:1039F0001346241A43EA014027B1002324FA0CF4A9
:103A00003C607B603146BDE8F08702392A44DEE73E
:103A1000023B2C44EDE7002A71D0B2FA82F3DBB30B
:103A20001E4602FA06F5C6F1200321FA03F24FEA18
:103A3000154E20FA03F300FA06F4B2FBFEF0B14093
:103A40000B431FFA85FC0EFB102100FB0CF81A0C2F
:103A500042EA0142904506D9AA1800F1FF3101D28D
:103A600090454ED80846A2EB0802B2FBFEF10EFBD1
:103A7000112201FB0CFC9BB243EA02439C4506D990
:103A8000EB1801F1FF3201D29C453DD81146A3EB62
:103A90000C0341EA004101E08B1A01214FEA154E67
:103AA000B3FBFEF01FFA85FC0EFB103300FB0CF895
:103AB000220C42EA0342904506D9AA1800F1FF33CE
:103AC00001D2904523D81846A2EB0802B2FBFEF3C0
:103AD0000EFB132203FB0CFCA4B244EA0244A445EF
:103AE00006D92C1903F1FF3201D2A44512D813468E
:103AF000A4EB0C0443EA0040B4460E467CE71F26C4
:103B00008FE702382A44AEE702392B44BFE7023878
:103B10002A44D9E7023B2C44EAE78B4205D90FB18E
:103B2000C7E90001002630466CE7B3FA83FCBCF11C
:103B3000000F0FD18B4201D3824209D8841A61EB66
:103B4000030301209E460FB1C7E9004E002659E746
:103B50006046F8E7CCF1200E03FA0CF322FA0EF5DA
:103B60001D4321FA0EF44FEA154901FA0CF300FA4D
:103B70000CF620FA0EF1B4FBF9F01FFA85F809FBF8
:103B8000104A194300FB08F30C0C44EA0A44A34210
:103B900002FA0CF206D92C1900F1FF3A01D2A34225
:103BA00035D85046E41AB4FBF9F309FB134403FB80
:103BB00008F889B241EA0441884506D9691803F139
:103BC000FF3401D2884525D8234643EA0040A1EBC3
:103BD0000801A0FB029841454C46434602D306D15A
:103BE0004E4504D2B9EB020468EB05030138002FFF
:103BF000ACD0321B61EB030101FA0EFE22FA0CF38A
:103C00004EEA030321FA0CF1C7E900319EE70238BE
:103C10002C44C7E7023B2944D7E70000704700BFA8
:103C2000002301461A46184601F0DEBA0A22002196
:103C300000F0C2B80A23002200F0AEB808B5064B67
:103C4000044613B1002101F02DFB044B1B6803B1A6
:103C50009847204604F0B8F9A55200003C0F042014
:103C6000242B2DE9F84F42D8012B40D01F468E4619
:103C70008046484875461EF801BB10F80B4014F00A
:103C80000804F7D1BBF12D0F6FD06FF00049BBF1E5
:103C90002B0F04BF9EF800B005F1020E7BBBBBF1F9
:103CA000300F4CD00A273B460025B9FBF7F62846D3
:103CB00007FB169A05E03BD0012507FB00C01EF864
:103CC00001BBABF1300CBCF1090F06D9ABF1410CD3
:103CD000BCF1190F1AD8ABF1370C63451FDDB5F1F4
:103CE000FF3FECD08642E6D24FF0FF35E7E701F028
:103CF00035F91622034600201A60BDE8F88F102B14
:103D0000D2D1BBF1300F23D01F46CDE7ABF1610C10
:103D1000BCF1190F03D8ABF1570C6345DFDC6B1C0A
:103D20002BD054B9002AE8D085BB1160BDE8F88FCC
:103D3000E245C1DA4FF0FF35C1E74042F2E79EF8B5
:103D4000003003F0DF03582B08D008273B46ABE7D1
:103D50009EF8000000F0DF005828D5D110279EF80B
:103D600001B03B460EF1020E9EE79EF800B04FF008
:103D70000049012405F1020E90E72223C8F8003023
:103D800032B10EF1FF3148461160CFE78146F8E7C6
:103D90004846B2E7099E000062E700BF8C4600B5C6
:103DA00086461346034A714610685DF804EB624686
:103DB00056E700BFFC0304208C4600B58646134638
:103DC000034A714610685DF804EB624648E700BF9D
:103DD000FC0304202DE9F04D002B88B014461D464D
:103DE000109E1299DDF8508041DB0022B8F1650F7A
:103DF0000A7039D040DCB8F1450F35D0B8F1460F24
:103E00005FD103230093139B2246CDE9016307ABE7
:103E1000049306AB03932B4601F06CFB074628F096
:103E20002003462B07EB060805D13B78302B3CD00E
:103E3000139B1E68B0442046294600220023FFF74A
:103E400001FA00283BD1079B984506D930215A1C1E
:103E500007921970079B4345F9D33846159ADB1B27
:103E6000136008B0BDE8F08D02230136CAE703F104
:103E7000004B2D225D46B9E7B8F1660FC1D0139B08
:103E80002246CDE901630223009307AB049306ABFE
:103E900003932B4601F02EFBB8F1670F0746BED106
:103EA000119BDB0721D4079BD7E700220023204684
:103EB0002946FFF7C7F9D8B1139B1B6898444346BE
:103EC000CBE7139B2246CDE901630223009307ABA6
:103ED000049306AB03932B4601F00CFBB8F1470F9C
:103EE00007469CD1119BDB07DDD507EB0608A2E74F
:103EF000139BC6F101061E609CE700BF0029B4BFFA
:103F00002D232B2330B5B8BF4942092983B0027055
:103F100043702CDD0DF107042346194D8C461A46DB
:103F2000A5FB01E3DB0803EB830EA1EB4E0101F1DE
:103F3000300EBCF1630F194602F801EC02F1FF33B9
:103F4000ECDC303103F8011C931EA34200F10205A2
:103F50000AD2411C13F801CBA34201F801CFF9D1D9
:103F60000DF109039B1A1D44281A03B030BD3023FC
:103F7000051D1944C1708370281A03B030BD00BFFD
:103F8000CDCCCCCC2DE9F04F91B00C46DDF868805B
:103F900016461F46054600F085FF036818460A933B
:103FA00001F0F4F800230E93D8F800300B9007339B
:103FB00023F0070303F10802D4F800A094F818B026
:103FC000C8F80020D3E9008929F000430993CDF80F
:103FD00020804FF0FF32DDE90801C4E91289A04BCF
:103FE00003F096FF40B9DDE908014FF0FF329C4B2A
:103FF000FFF73CF9002877D042464B4640464946F9
:1040000003F086FF002840F03B8263684AF4806139
:104010005A1C0BF0DF0A35D0BAF1470F00F02881A7
:10402000009321600191002106910EA905910DA92F
:1040300003910DF1330142464B462846CDF810B0AE
:104040000291FFF7C7FE8046BBF1650F0D993AD983
:10405000BBF1660F00F02E810E9B8B4240F3358141
:104060000029CCBF0122C1F10202134423614FF0A9
:10407000000AA1659DF83330002B4DD02D2384F824
:10408000433049E0216001910021062006910EA9EC
:10409000CDF810B0606005910DA903910DF13301C9
:1040A000424600904B4628460291FFF793FEBAF134
:1040B000470F8046C8D10D99C81C80F2F480ABF13F
:1040C000020B5FFA8BFB5A46013904F150000D9147
:1040D000FFF714FF0E9A82461318012A236140F35A
:1040E000428101332361C5E740464946002200234F
:1040F000FFF7B2F810B12D2384F843302AF00403FF
:1041000023600323574A2361574B4FF0000ABBF14A
:10411000470F8CBF90469846334621462846009765
:104120000FAA00F0D1F9013023D0236858052BD411
:104130004246314628462369B847013019D02268E3
:104140009207E0680F9B19D5984217DD4FF00008E1
:1041500004F1190904E0E0680F9BC21A42450DDD25
:1041600001234A4631462846B847013008F1010884
:10417000F1D14FF0FF3011B0BDE8F08F9842B8BFD9
:10418000184611B0BDE8F08FBBF1650F33D9D4E903
:10419000120100220023FFF755F8002800F09D804F
:1041A000012331462846314AB8470130E1D0DDE9E4
:1041B0000D3A534502DB2268D107C1D5DDE90A2358
:1041C00031462846B8470130D3D0BAF1010FB6DDE9
:1041D0004FF000080AF1FF3A04F11A0901E0D04556
:1041E000ADD001234A4631462846B847013008F190
:1041F0000108F4D1BDE7DDF83890B9F1010F40F3C3
:104200009D800123424631462846B8470130B0D050
:10421000DDE90A2331462846B8470130A9D0D4E960
:1042200012010022002309F1FF3BFFF70BF80028E1
:1042300000F09E80B9F1010F40F38B804FF0000831
:1042400004F11A0902E0D84500F0838001234A46B0
:1042500031462846B847013008F10108F3D188E714
:10426000FFFFEF7FA09A00009C9A0000AC9A00002C
:104270000BB9012363600093216001910021069135
:104280000EA905910DA903910DF13301424602914A
:104290004B462846CDF810B0FFF79CFD0D9980469F
:1042A000C81CFFF60CAF636899423FF708AF4FF0A8
:1042B000670BD1E6002963685EDD2161002B00F009
:1042C0008D8001330B442361D1E623682161DB0734
:1042D0007FF5CDAE4B1C2361C9E60D9B002B52DD53
:1042E0000E9BD4F858B099465B45A8BFD946B9F1A2
:1042F000000F089309DD4B46424631462846B84731
:1043000001303FF436AFD4F858B029EAE97293454A
:1043100071DD4FF0000A934604F11A0904E0A36D21
:10432000A3EB0B02524565DD01234A463146284680
:10433000B84701300AF1010AF1D11AE7D9073FF570
:1043400060AF4246012331462846B84701303FF46A
:1043500010AF53463146284604F15002B8470130A9
:104360007FF4EDAE05E72268D2077FF583AEB8E6AD
:104370005B4608F10102E6E7002B34D12268D20740
:1043800031D4012372E60123314628464B4AB8470F
:1043900001303FF4EEAEDDE90D3A5AEA030324D0D2
:1043A000DDE90A2331462846B84701303FF4E1AE43
:1043B0000D9B002B79DA4FF0000B04F11A0903E092
:1043C0000D9B5B425B4570DD01234A463146284622
:1043D000B84701300BF1010BF2D1CAE62268D007D1
:1043E0007FF545AE6DE7023340E62268D3077FF5DF
:1043F000A7AED5E79B460D9B089A9A4202DC22683D
:10440000D00708D5DDE90A2331462846B8470130F0
:104410003FF4AFAE0D9B089AA2EB0B0AD31A9A4554
:10442000A8BF9A46BAF1000F91460BDD53463146BC
:10443000284608EB0B02B84701303FF49AAE4A46D3
:104440000D9BD31A2AEAEA7A53457FF778AE4FF0EC
:104450000008DDF820B004F11A0907E00D9BABEB72
:104460000303A3EB0A0343457FF769AE01234A46E2
:1044700031462846B847013008F10108EED178E608
:104480004B46002BBCBF2D2384F843302AF0040395
:10449000236003230A4A23610A4B4FF0000ABBF151
:1044A000470F8CBF9046984636E653464246314603
:1044B0002846B84701307FF442AE5AE6AC9A000075
:1044C000A89A0000A49A00002DE9F84F92461F46D2
:1044D0000A698B680C469A42B8BF1A46CAF800208F
:1044E00091F843300646DDF8289013B10132CAF83E
:1044F0000020226891065FD5DAF800300233CAF84E
:104500000030226812F0060F11461DD1E168994271
:10451000D8BF114618DD4FF0000804F1190B05E073
:10452000E568DAF80030ED1A45450CDD01235A46FE
:1045300039463046C847013008F10108F0D14FF044
:10454000FF30BDE8F88F216894F84330003B18BF76
:1045500001238A060AD53021E21882F8431094F824
:1045600045105A1C2244023382F843103946304623
:1045700004F14302C8470130E1D0D4E902202368A6
:10458000DAF8005003F00603042B21691BD08A429D
:1045900020DD4FF00008521A904400251A3401E043
:1045A000454517DA0123224639463046C8470130CF
:1045B00005F10105F4D1C2E712F0060F0DD0003B62
:1045C00018BF0123D2E7401B8A4220EAE078E2DCF0
:1045D0000028E2DC0020BDE8F88FE168DAF800305E
:1045E0009942D8BF114696DCAEE700BF2DE9F047EF
:1045F00017460A7E84B00C46064698460C9D01F18B
:10460000430C002A35D0A2F15803D9B2202969D829
:10461000202B67D8DFE813F0E6006600660066002E
:104620006600660066006600660066006600AC0014
:104630007000660066006600660070006600660036
:104640006600660021008300C60066006600B600B2
:104650006600830066006600EC002B682268181D67
:104660006169286010061B6802D4520600F1E080E0
:1046700019600023E14623613B4621463046CDF8D0
:10468000008003AAFFF720FF013020D04A463946B8
:1046900030462369C047013019D02368E0689B0782
:1046A000DDF80C9018D5484516DD002504F1190AEF
:1046B00004E0E068A0EB0903AB420DDD01235246A4
:1046C00039463046C047013005F10105F1D14FF0C0
:1046D000FF3004B0BDE8F0874845B8BF484604B095
:1046E000BDE8F087012084F8422004F1420900234C
:1046F000206184F84330BFE72A682368111D18063B
:10470000296002D4590600F19580106801460028FE
:104710006268C0F293804FF00A0E534815E020689B
:104720002B6810F0800F53F8041B02D1400648BFDD
:1047300089B26F2A14BF4FF00A0E4FF0080E4A4894
:104740002B600023626884F84330002AA26051DBAA
:10475000236823F00403236000294BD1002A7BD176
:10476000E146BEF1080F56D0ACEB0903236183E7A5
:104770002A680120116804322A6004F1420984F891
:104780004210B4E72B6800211A1D2A60D3F800906C
:104790006268484600F038FC002863D0A0EB0900AE
:1047A0006060A4E7236843F02003236078222F4849
:1047B00084F845202A6813F0800F52F8041B03D1B7
:1047C00013F0400F18BF89B22A60DA0744BF43F0E4
:1047D0002003236019B9236823F0200323604FF0DE
:1047E000100EAEE75823204884F845302368E1E7EF
:1047F0002368DBE77546E146B1FBF5F30A4605FBA6
:10480000131A194610F80A30AA4209F8013DF3D2EA
:10481000BEF1080FA8D12368DD07A5D5626823691A
:104820009A42A1DC302309F1FF3989F800309BE777
:1048300019801EE7B2F90010084668E72D20002A0B
:10484000A26084F8430002DB23F0040323600A25FE
:104850000548AE464942CEE7037804F1420984F8A0
:1048600042307EE7606842E7B09A0000C49A0000D8
:10487000F8B5B1F90C300C461E07074639D44A6822
:10488000002A53DDE56A002D31D000223E683A60EF
:1048900013F48052216A55D101233846A847451C9C
:1048A000024663D0B4F90C30E56A216A580705D591
:1048B0006368D21A636B0BB1236CD21A002338469B
:1048C000A847421C40D00022236962602360A3896C
:1048D000DB0400D56065616B3E6041B104F14403C7
:1048E000994202D0384601F05FFD00236363002047
:1048F000F8BD0E69002EFAD09B0718BF00230D6883
:1049000008BF4B690E60AD1B8B600CE02B46324636
:10491000D4F828C03846216AE047B0F1000CA5EB76
:104920000C05664406DD002DF0DCE0E70A6C002A89
:10493000A8DCDCE7B4F90C3043F040034FF0FF3063
:10494000A381F8BD626DB1E73968B4F90C301D2957
:10495000F2D80B4ACA40D507EED500226260226920
:104960002260DA04B7D50029B4D0B4E73B68002B45
:1049700098D01D2B01D0162BDCD13E60B7E700BFCD
:104980000100402038B50B69CBB10C46054608B193
:10499000036ABBB1B4F90C308BB1626ED00701D49D
:1049A000990512D528462146FFF762FF636E05463A
:1049B000DA0702D4A3899B050BD5284638BD00250C
:1049C000284638BD00F03CF9E4E7A06D00F012FB8A
:1049D000E8E7A06D00F016FBEFE700BF014618B155
:1049E000044B1868FFF7CEBF034A0449044800F09F
:1049F00077B900BFFC030420F003042085490000C0
:104A000000040420024A0349034800F069B900BFCA
:104A1000F003042085490000000404200C4B416889
:104A200010B59942044601D0FFF7ACFFA168094BCD
:104A3000994202D02046FFF7A5FFE168064B994254
:104A400004D02046BDE81040FFF79CBF10BD00BF5A
:104A5000040E04206C0E0420D40E042008B54B6E06
:104A6000DA0702D48B899B0501D5002008BD886D2B
:104A700000F0C0FA002008BD08B54B6EDA0702D47A
:104A80008B899B0501D5002008BD886D00F0BAFA1E
:104A9000002008BD2DE9F84300250423304C31499E
:104AA000DFF8C490DFF8C480314F324E0822C4F8DA
:104AB000381104F15C002946C4E90335C4E9005506
:104AC000C4E90555A560656600F09AF904F158003F
:104AD000C4E90849C4E90A87266300F083FA264B33
:104AE0002946082204F1C4006367C4E91A55C4E9E1
:104AF0001E552567C4F8CC50C4F8805000F080F9EA
:104B000004F1680304F1C000C4F88830C4E92398B4
:104B1000C4E9257600F066FA184B294604F596702C
:104B20000822C4F8DC30C4E93455C4E93855C4F867
:104B3000D850C4F83451C4F8E85000F061F904F1D9
:104B4000D003C4E93E87C4F8F49004F59470C4F827
:104B50000061C4F8F030BDE8F84300F043BA00BF8C
:104B6000040E0420054A00006D4D0000954D000024
:104B7000D54D0000F94D00000900010012000200AF
:104B8000F8B506462A4800F035FA2A4BD3F83831F2
:104B9000002B43D0284FD7E90134013B04D524E052
:104BA0005A1C04F1680420D0B4F90C50013B002DCC
:104BB000F6D1224B04F15800E360656600F012FA6A
:104BC0001B4800F01FFA08222946C4E90155C4E930
:104BD00004552560A56104F15C0000F011F9C4E9F9
:104BE0000D55C4E912552046F8BD3D680DB12F465C
:104BF000D1E74FF4D671304601F06AFC044680B12B
:104C000004230560294625460C304FF4D072A0607D
:104C1000636000F0F5F83C602F46BCE7FFF73AFF11
:104C2000B8E703483C6000F0EDF90C233360DAE7A5
:104C3000600F0420040E0420F00304200100FFFF95
:104C400010B504460B4800F0D5F9236A2BB90A4B7E
:104C50000A4AD3F83831226223B1BDE81040054832
:104C600000F0D0B9FFF716FFBDE81040014800F092
:104C7000C9B900BF600F0420040E04201D4A0000C3
:104C8000014800F0B7B900BF600F0420014800F0F0
:104C9000B9B900BF600F042008B5054800F0AAF9B3
:104CA000BDE808400020034A034900F019B800BFDE
:104CB000600F0420F00304205D4A000008B50020C6
:104CC000044A054900F00CF8BDE80840034800F02C
:104CD00099B900BFF0030420794A0000600F042056
:104CE0002DE9F8434FF0000980460F461646D6E9F5
:104CF0000154013D10D4A389012B08D9B4F90E3019
:104D0000013304D021464046B84749EA0009013D35
:104D10006B1C04F16804EED13668002EE7D14846DA
:104D2000BDE8F8830EB400B582B003AB53F8042B92
:104D30008168019302F0FCF902B05DF804EB03B066
:104D4000704700BF0FB400B5074A83B004AB1068CA
:104D500053F8042B8168019302F0EAF903B05DF87F
:104D600004EB04B0704700BFFC03042010B50C46F0
:104D7000B1F90E1000F0C6F8002803DB636D0344A0
:104D8000636510BDA38923F48053A38110BD00BFC8
:104D9000002070472DE9F0410C46B1F90C101F4678
:104DA000CB05054616460BD421F48051A1813B4624
:104DB00032462846B4F90E10BDE8F04100F0B8B80C
:104DC000B4F90E100223002200F086F8B4F90C109A
:104DD000EAE700BF10B50C46B1F90E1000F07CF800
:104DE000B4F90C30421C0EBF23F4805343F48053BB
:104DF0006065A38110BD00BFB1F90E1000F05AB874
:104E000070B5860747D0541E002A3ED00346CAB26A
:104E100001E0013C39D303F8012B9D07F9D1032CA4
:104E20002CD9CDB205EB05250F2C1A4605EB05450F
:104E300034D9A4F1100C2CF00F0603F1100EB64477
:104E40004FEA1C1CC2E90055C2E9025510327245F6
:104E5000F8D10CF1010214F00C0F03EB021204F074
:104E60000F0C13D0ACF1040323F0030304331344F9
:104E700042F8045B9342FBD10CF003042CB1C9B29D
:104E80001C4403F8011BA342FBD170BD64461346CA
:104E9000002CF4D1F9E703461446C0E7A446E1E745
:104EA000F0307047004870474005042000487047C4
:104EB00040050420002238B5064D044608462A6005
:104EC000FCF702F8431C00D038BD2B68002BFBD048
:104ED000236038BD400F042038B50C46114600222F
:104EE0008446074D20462A601A466446FBF7F4FFC5
:104EF000431C00D038BD2B68002BFBD0236038BD8D
:104F0000400F042038B50C46114600228446074D58
:104F100020462A601A466446FBF7E0FF431C00D097
:104F200038BD2B68002BFBD0236038BD400F042018
:104F300038B50C46114600228446074D20462A60AB
:104F40001A466446FBF7A2FF431C00D038BD2B680D
:104F5000002BFBD0236038BD400F0420014B1868A4
:104F6000704700BFFC03042070B50F4B0F4DAB42E0
:104F7000A3EB050607D00024B61055F8043B013416
:104F80009847A642F9D804F05DFD094D094B5E1B18
:104F9000AB424FEAA60606D0002455F8043B013484
:104FA0009847A642F9D870BDBC050420BC05042072
:104FB000BC050420C005042038B5074D074C2C1B48
:104FC000A41005D0013C55F8043D9847002CF9D1B8
:104FD000BDE8384004F03CBDC4050420C0050420F1
:104FE000704700BF704700BF704700BF704700BFE9
:104FF000704700BF704700BF012070470120704715
:10500000704700BF704700BF5FFA81FC810744D042
:105010000346511E22B909E09A0709D0013905D388
:105020001846027801336245F6D170470020704778
:10503000184603290CD80029F8D00346014401E0A2
:105040008B42F3D0184613F8012B6245F8D1704714
:1050500010B50CEB0C24024604EB044402E00439C6
:10506000032915D9104652F8043B6340A3F1013ED1
:105070002EEA030313F0803FF1D00346014401E020
:105080008B4208D0184613F8012B6245F8D110BDA9
:1050900010460029F1D1002010BD1146C9E700BF1C
:1050A000844641EA000313F0030349D1403A23D375
:1050B0000B6803604B6843608B688360CB68C36098
:1050C0000B6903614B6943618B698361CB69C36180
:1050D0000B6A03624B6A43628B6A8362CB6AC36268
:1050E0000B6B03634B6B43638B6B8363CB6BC36350
:1050F00040304031403ADBD230320BD30B68036092
:105100004B6843608B688360CB68C360103010319C
:10511000103AF3D20C3205D351F8043B40F8043B6B
:10512000043AF9D2043208D0D2071CBF11F8013B6F
:1051300000F8013B01D30B8803806046704700BF35
:10514000082A13D38B07B1D010F00303AED0C3F1FC
:105150000403D21ADB071CBF11F8013B00F8013B26
:10516000A4D331F8023B20F8023B9FE7043AD9D39D
:10517000013A11F8013B00F8013BF9D20B780370BA
:105180004B7843708B7883706046704720F0030142
:1051900010F00300C0F1000051F8043B00F1040CD2
:1051A0004FEACC0C6FF000021CBF22FA0CF2134342
:1051B0004FF0010C4CEA0C2C4CEA0C4CA3EB0C020B
:1051C00022EA030212EACC1204BF51F8043B043075
:1051D000F4D0C2F1000102EA0102B2FA82F2C2F195
:1051E0001F0200EBD20070472DE9F04DDFF8A0B0B0
:1051F0000746DBF800001E4688469246FFF7FAFE97
:10520000244B1D6835B36C681F2C3ADCB7B1D5F858
:10521000880040B3D0F800310122A24000EB8401A5
:105220001343022F40F824A0C0F80031C1F8806079
:1052300004D1D0F804311343C0F80431631C0234A4
:10524000DBF800006B6045F82480FFF7DBFE0020F0
:10525000BDE8F08D104A1A60104B13B11B68C2F8FC
:1052600088300D4DCFE70E4B5BB14FF4847001F0E9
:10527000F9F830B100236C68C0E94033C5F8880004
:10528000CAE7DBF80000FFF7BDFE4FF0FF30DFE7B5
:105290004C040420F00F0420640F042000000000E0
:1052A0006564000003462DE9F04F414F87B0386830
:1052B00005930E46FFF79EFE3E4BD3F800B0BBF1C0
:1052C000000F45D0DBF80450DBF888A06C1E3FD4FB
:1052D0000AF180094B460135B046D9460BEB8505EE
:1052E00056469B46B8F1000F38D1D9F804102A6809
:1052F0000139A14218BF002338680CBFC9F8044027
:105300002B600192FAB1D6F80431D6F8001103935C
:1053100056F8243002910493D9F804A0FFF772FEE6
:105320000123029903FA04F00842019A27D1904719
:105330003868FFF75FFED9F8042052452CD11D4B89
:105340001A684A4530D1013C631CA5F10405C9D156
:10535000386807B0BDE8F04FFFF754BE56B15BF8B0
:1053600024304345C1D0013C621CA5F10405EFD0B7
:10537000002EF4D1013CEBD3013CFBD2E8E7039BC8
:1053800018420ED1DDE9041090473868FFF732FE6D
:10539000D9F804205245D2D0064B4646D3F800B087
:1053A0008DE704989047C3E74646934687E700BFDA
:1053B0004C040420F00F04202DE9F04F03690C6920
:1053C00085B0A342C0F291808146013C01F11405F1
:1053D00009F1140855F8243058F824C001339C45CD
:1053E000BCFBF3F64FEA840005EB840708EB84026C
:1053F00043D34FF0000CAA46CDE90105C6466346EB
:1054000065469346CDF80C805AF8040BDEF8002070
:105410001FFA80FC06FB0C554FEA10484FEA154C6A
:1054200006FB08CCADB290B2401B18441FFA8CF3B7
:10543000C3EB204303EB124380B240EA03405745DD
:105440004EF8040B4FEA1C454FEA2343DCD2DDE95A
:105450000105DDF80C8058F8003073B9ABF1040297
:10546000904504D307E0904504F1FF3403D252F88D
:105470000439002BF7D0C9F81040484601F0BAFBB8
:1054800000282EDB4146002255F8040BD1F800C05D
:105490001FFA80FE1FFA8CF3A3EB0E031344020CD9
:1054A000C2EB234202EB1C429BB243EA0243AF42EF
:1054B00041F8043B4FEA2242E6D258F8242008EB98
:1054C00084036AB9043B434504D807E0984504F1D6
:1054D000FF3403D253F80429002AF7D0C9F810404A
:1054E0000136304605B0BDE8F08F002005B0BDE8BC
:1054F000F08F00BF2DE9F04F16461F46C5699DB0DD
:10550000CDE90667299C0390002D00F0B28329683D
:1055100051B101236A6893404A608B6001F0A4F89E
:105520000022039BDB691A60B7F10009B4BF0123B5
:1055300000232360784BBCBF29F00049CDF81C90B4
:1055400033EA090300F0AE80DDE90634184621464F
:1055500000220023CDE90401FDF774FE804668B106
:105560000123289A13602A9B13B16C4B2A9A13606B
:105570006B4B089308981DB0BDE8F08F1AAB0193F0
:105580001BAB00930398DDE9042301F091FC5FEA73
:105590001955824640F09C80DDE91A85454405F2A4
:1055A0003243202B40F39983C3F1400309FA03F9F6
:1055B00005F2124326FA03F349EA0300FDF760FB04
:1055C0000123013D1193A1F1F8710022554BFDF724
:1055D00019FA4BA3D3E90023FDF7CCFB4AA3D3E987
:1055E0000023FDF711FA064628460F46FDF758FB43
:1055F00047A3D3E90023FDF7BDFB02460B46304627
:105600003946FDF701FA06460F4602F097FC0022E4
:1056100004460990002330463946FDF71DFE002858
:1056200040F03483099CA8EB0508162C08F1FF3BD9
:1056300000F21383DDE904013B4B03EBC403D3E920
:105640000023FDF709FE002874D0631E0993002390
:10565000BBF1000F1093C0F2068300230B93099B4C
:10566000002B6DDA099B0B9A0E93D21A5B420F93B3
:1056700000230993269B0B92092B69D8052BC4BFE5
:10568000043B2693269BC8BF0025A3F10203D8BF85
:105690000125032B00F24C86DFE813F07A0477042F
:1056A0006E04500442F20F73289AC9F3130959EAA1
:1056B000060913601CD12A9B002B00F02F861B4B80
:1056C000089308332A9A089813601DB0BDE8F08F3C
:1056D000DDE90412C2F31303084643F07F51CDF80D
:1056E0004480A5F2FF35DDF8688041F440116CE795
:1056F0002A9B002B40F0FE830D4B08933AE700BF36
:1057000061436F63A787D23FB3C8608B288AC63FC7
:10571000FB799F501344D33F0000F07FAD9A000007
:10572000AC9A00000000F83F209F0000D89A0000CB
:10573000E49A0000B8F1000F40F3AF8410900B9092
:10574000099B9B440E9300230F93269B092B95D90D
:10575000002326934FF0FF3301250A9300230C9575
:1057600027930021039BDB6959600A9B18930398D8
:1057700000F03AFF0890002800F0E385039B089AA8
:10578000DB691A600A9B0E2B00F20D81002D00F0E0
:105790000A810E99002940F34E84AE4B01F00F02AE
:1057A00003EBC2030A46D3E90067D2054FEA21158D
:1057B00040F11084DDE90401A74B4FF00309D3E960
:1057C0000823FDF701FCCDE9120105F00F058DB1AD
:1057D000DFF88482EB0709D5D8E900233046394643
:1057E000FDF7C8FA06460F4609F101096D1008F1E8
:1057F0000808EFD1DDE912013B463246FDF7E4FB34
:1058000007468846109B43B1002238464146934BD9
:10581000FDF722FD002840F012854846FDF740FACA
:105820003A464346FDF7A6FA8D4B0022FDF7ECF809
:105830000A9B0446A1F15075002B00F09D800E9B41
:1058400019930A9B12934146384602F077FB12994E
:10585000804BCDE9144503EBC10353E902340546FF
:10586000CDE91634FDF71CFA0B4602464146384690
:10587000FDF7C8F8089F0C9B30357E1CECB28046C3
:1058800089463546002B00F06B84DDE916230020A5
:105890007449FDF799FBDDE91423FDF7B3F83C707B
:1058A00042464B4604460D46FDF7F4FC002840F006
:1058B000B984CDF858B0CDF850A0AB460027A24629
:1058C000129D2AE00137AF4280F2018550465946C9
:1058D0000022654BFDF74EFA0022634B82468B4651
:1058E00040464946FDF746FA8946804602F026FBC7
:1058F0000446FDF7D5F902460B4640464946FDF7FA
:1059000081F8303452465B4606F8014B80468946A2
:10591000FDF7A2FC002840F0D78442464B46002009
:105920004E49FDF76FF852465B46FDF795FC00289F
:10593000C8D0199B3746DDF850A0089A03F101083A
:1059400002E0974200F0A1843E4617F8013D392B52
:10595000F7D00133DBB245463B706DE14846FDF7B9
:105960009FF93A464346FDF705FA00223C4BFDF706
:105970004BF80446A1F15075384600223B4B414696
:10598000FDF740F822462B4606460F46FDF782FCFF
:10599000002840F0898430463946224605F100430C
:1059A000FDF75AFC28BB1B9B002BC0F291800E9A7E
:1059B0000E2A00F38D80274B0E9A03EBC203D3E926
:1059C0000034CDE90634279B002B19DA0A9B002B03
:1059D00016DC0ED1DDE906010022244BFDF7CAF9E1
:1059E00002460B46DDE90401FDF740FC002800F00B
:1059F0005B8400231F46089E0493279BDD4340E2FF
:105A0000089B5D1CDDE90678DDE904013A46434662
:105A1000FDF7DAFA02F092FA0646FDF741F93A4646
:105A20004346FDF7A7F902460B46DDE90401FCF702
:105A3000E9FF089A06F1300313700A9B2F46012BE9
:105A400000F036830125CDF810A0A846DDE906ABAD
:105A500099462BE0209F000010A000000000F03FBE
:105A600000001C400000E03F000024400000144003
:105A700052465B4620462946FDF7A6FA02F05EFA3A
:105A80000646FDF70DF952465B46FDF773F908F13E
:105A900001080B46024629462046FCF7B3FF06F1F3
:105AA0003003C84507F8013B00F0008300228D4B0E
:105AB000FDF760F90022002304460D46FDF7C2FB06
:105AC0000028D5D00E9D3E46DDF810A00135B3E08C
:105AD0000C9A002A40F0EE8000231F460F9E0B9D7B
:105AE0000C9365B1BBF1000F09DD5D452B46A8BFE6
:105AF0005B460B9AED1AD21A0B92ABEB030B0F9B82
:105B000053B10C9B13B1002E40F00B8351460F9AFA
:105B1000039800F08BFF82460121039800F0BEFE3F
