:1000000000400020652C0000612C0000612C0000E5
:10001000612C0000612C0000612C00000000000039
:10002000000000000000000000000000612C000043
:10003000612C000000000000612C0000612C000019
:10004000612C0000D50C0000612C0000612C000028
:10005000612C0000612C0000612C0000612C00006C
:10006000612C0000612C0000612C0000612C00005C
:10007000612C0000612C0000612C0000612C00004C
:10008000612C0000612C0000612C0000612C00003C
:10009000612C0000612C0000612C0000612C00002C
:1000A000612C0000612C0000612C0000612C00001C
:1000B000612C0000612C0000612C0000612C00000C
:1000C000612C0000612C0000612C0000612C0000FC
:1000D000612C0000612C0000612C0000612C0000EC
:1000E000612C0000612C0000612C0000612C0000DC
:1000F000612C0000612C0000612C00000000000059
:1001000000000000000000000000000000000000EF
:1001100000000000000000000000000000000000DF
:10012000612C0000612C0000612C0000612C00009B
:10013000612C0000612C0000612C0000612C00008B
:10018000FFFFFFFFFFFFFFFFFFFFFFFFFFFFFFFF7F
:1001900003329CA77F000000FFFFFFFFFFFFFFFF70
:1001A0000348044B834202D0034B03B11847704706
:1001B000C4050420C4050420000000000548064BC7
:1001C0001B1AD90F01EBA301491002D0034B03B155
:1001D00018477047C4050420C4050420000000002F
:1001E00010B5064C237843B9FFF7DAFF044B13B17F
:1001F0000448AFF300800123237010BDC405042020
:1002000000000000B08D000008B5044B1BB104498C
:100210000448AFF30080BDE80840CFE700000000CD
:10022000C8050420B08D0000A3F5803A704700BFD8
:10023000154B002B08BF114B9D46FFF7F5FF002122
:100240008B460F461148124A121A04F0CBFD0C4B94
:10025000002B00D098470B4B002B00D09847002074
:10026000002104000D000B4803F072FE04F00CFEA8
:100270002000290000F0DEFE03F070FE0000080000
:10028000000000000000000000400020C405042021
:10029000E40F0420D14E00002DE9F04F0D4687B049
:1002A000824605A9032000F03BF81DB300240AF1A3
:1002B000040B059802F070FE06460F465BF834000A
:1002C0000E4903F0B9FA0E4903F06AFB02F064FE2E
:1002D000CDE902015AF8340002F05EFE80468946FC
:1002E00032463B46CDE900890648013404F02CFC37
:1002F000AC42DED1002007B0BDE8F08F00003443EF
:10030000DA0F49409C870000034618B1034A0020D9
:100310001A6070476FF00100704700BF00000420B2
:1003200000B597B0042822D8DFE800F024485459DB
:1003300003000A2002F09AF90A2805D8002002F0EA
:1003400055F8002002F052F800216846CDE900116E
:1003500002918DF80C1001F097FB3C22002104A8BB
:1003600004F040FD04A801F0F3FD02F071F9002053
:1003700017B000BD0A2002F079F90A283BD8214BBA
:1003800093F8B423002A39D0996AD8694FF0010351
:1003900000228DF854300023CDE9042303F000FB44
:1003A00003F010FC0123C21E04A80D92119301F06A
:1003B00079FF0022134BC3F8E423D8E70A2002F0A8
:1003C00055F90A2817D8002002F010F8002002F092
:1003D0000DF8CCE701220B4B83F8E023C7E7002997
:1003E000C5D0084B93F86820012A0CBFD3F8B0336E
:1003F0001B6B0B60BBE76FF00800B9E76FF06300A1
:10040000B6E700BF000004202DE9F0430746CDB059
:100410000A20884602F02AF90A2800F24D820023B9
:1004200001214FF08072AC4C03A80593CDE9031273
:1004300001F088FE237D012B03D094F8B433002B08
:1004400046D1236A0025329394F8513005223D931A
:1004500094F8503039923C93012341930A23389306
:10046000236E8DF8DC503F93E36D33953E9394F803
:1004700064308DF80031636B3093A36D3693636DF8
:100480003493A3693193E36E2F9394F86830012B72
:1004900040F0FB81636FE56773B1904E31462FA842
:1004A00002F022F98E482FA901F026F8636F01357A
:1004B0009D4206F10806F1D30023E3670023D4F838
:1004C00090202375C4F88820D4F89420C4F88C2098
:1004D0000021022001F022FE02230122CDE90B338C
:1004E0000D93636A0AA80E938DF8282001F0E8FDA9
:1004F0004FF0FF3002F074F894F8B433002B40F062
:10050000B280002F00F0DB814146002900F0D78146
:100510000025384600F030FE012000F04DFE714A03
:10052000714B06A806920793CDF8215001F0ACFA62
:100530000B2305224893636C49923493A36D4FF4C7
:10054000406246934FF4C043CDE930324FF480739C
:1005500002223293A36C8DF81C513593236C439582
:100560003393636D2F95449394F86830ADF8DC5065
:10057000012B369200F09281206BC4F8B003A16980
:1005800001F026FC59493E90E06B03F009FA584906
:1005900003F052F94FF07C5103F046F8002503F0C8
:1005A00011FBCDE93F052FA8419501F09BFB1E23D0
:1005B000139340F20113ADF874304FF48073ADF82B
:1005C000543043F2E0334FF0020801274FF00309A3
:1005D0001C93484B0FA8CDF85630CDE90F55CDE907
:1005E0001155CDE91955149517951B95CDF86080D7
:1005F00001F0AEFCE36C1EA8209394F85130CDE9D5
:100600001E77229394F85030CDE923972193236EDF
:10061000CDE92C552A93E36D2795299394F86430FE
:1006200028958DF8AC30ADF894708DF898702E95B3
:1006300001F00CFD3946304801F0EAF9284601F096
:100640002BFE4FF0014000F081FD02A901A800F04F
:10065000A7FD0646284600F0AFFD002E52D03046DA
:100660004DB0BDE8F0832378012B3FF44AAF00235F
:10067000224884F8C43301F0C1FD012303A88DF89A
:10068000103001F05FFDD4F8B80301F097FD4FF48E
:100690000041012001F0AAFF0028F8D00026012522
:1006A000174884F8D86301F0A9FD03A88DF810500D
:1006B00001F048FD00F0B6FAA06B032101F0DEF96D
:1006C000082142F25C3001F081F8304684F8B453DE
:1006D0004DB0BDE8F08300BF00000420900004206E
:1006E00068000420010101000001010000004844ED
:1006F00000E0FF448B061F00604E1100B803042089
:10070000CC030420029A01996068C4F8C023C4F89D
:10071000C813C4F8BC03C4F8B87301F059FDE36D05
:10072000216A434407FA03F33093236EA06934939C
:1007300094F851303396329394F85030CDF8BC9001
:10074000319303F02DF90FA936902FA800F010FE79
:10075000384600F031FD402001F09EFD4FF47A60F4
:1007600000F0F4FC10224FF48063CDE91E234FF417
:1007700081731EA82193CDF8808001F0DDF9394600
:10078000384601F023FC39464FF4814001F040F92E
:100790004FF4487000F0DAFC39464FF4014001F0A4
:1007A00037F90F9820F0404000F0D0FC31464CF271
:1007B000801001F02DF90621072001F007FC3946D1
:1007C0004FF4814001F024F94FF4487000F0BEFC72
:1007D00039464FF4014001F01BF90F9820F04040DA
:1007E00000F0B4FC31464CF2801001F011F94FF4E6
:1007F00080734FF4C04121934FF440631EA8CDE9AC
:100800001F131E9601F098F9304601F045FD01F0E6
:100810001FFF06A902A800F0C3FC0646284600F008
:10082000CBFC00F0D7FCC4F8E8030A3002F092FBDE
:100830000022274B02F008FC23A3D3E9002302F097
:1008400003FC02460B460020224902F027FD02F07D
:1008500095FEA16AC4F8EC03054603F08BF900B1DC
:10086000A562002E7FF4FBAED4E9EF030299069A4D
:100870001844C4F8CC63C4F8DC13C4F8D423C4F817
:10088000D00301F0A5FC2670F1E6236B12492FA8D6
:100890002F9301F029FF0023237519E60F49E36E1A
:1008A000A1F11C00E567C4F8B033C4F8803000F053
:1008B00023FED4F8800062E66FF00806CFE66FF002
:1008C0000106CCE6AFF300808DEDB5A0F7C6B03ED3
:1008D0000000B03F0000F03F8800042084000420A6
:1008E0002DE9F04F914E8DB096F8B433002B00F007
:1008F000168107460A20884601F0B8FE0A2800F251
:100900001181002001F09EFE00204FF00071C8F818
:10091000000001F06BFE012803D000200DB0BDE8FF
:10092000F08F01F007FC20F003042146384600F068
:10093000D5FE4FF0007001F053FEF26A4FEA940BBF
:10094000002A08DDD6F8E43303EB94039342C6F89B
:10095000E43380F0C58096F8E033012B00F0C080CE
:1009600096F86830002B40F0B580714801F06AFEBF
:10097000002C00F0A8803A1F02EB84016D4C52F865
:10098000043F980354BFC3F3110323439142136000
:10099000F5D13C460025D6F88830CDF82C80079359
:1009A000D6F88C3008933B1DCDE90937D4F8089070
:1009B0001034484602F0ECFE54F804AC07465046AA
:1009C00002F0E6FE39468046384602F035FF4146E1
:1009D0000746404602F030FF0146384602F024FE4A
:1009E00002F0DAFA06F014FACDE90001484602F006
:1009F000C1FA80468946CAF1000002F0BBFA4246BD
:100A00004B4606F05FF954F8109CCDE902014846C8
:100A100002F0BEFE54F80CAC0746504602F0B8FE99
:100A200039468046384602F007FF414607464046B1
:100A300002F002FF0146384602F0F6FD02F0ACFA81
:100A400006F0E6F9CDE90401484602F093FA804643
:100A50008946CAF1000002F08DFA42464B4606F084
:100A600031F980468946DDE9000102F087FD07463D
:100A7000DDE9040102F082FD0146384602F090FFF4
:100A80000746DDE9020102F079FD4946824640460B
:100A900002F074FD0146504602F0C4FD07998046FD
:100AA000384602F0C9FE0A9B089943F835004046D3
:100AB00002F0BAFD099B43F8350001355D457FF42E
:100AC00075AFDDF82C8096F86830012B0CD0C8F893
:100AD00000B022E7B169D6F8840001F029F944E7B3
:100AE000002001F083FC40E7D6F88020F36FC6F8C1
:100AF000B023D6F884201049C6F8802003F11202F2
:100B000006EBC30356F83220D3F89430A1F11C0051
:100B1000C6F88820C6F88C3000F0EEFCD7E76FF0FE
:100B20006300FBE66FF00800F8E600BF0000042059
:100B3000E5470A000000FCFF84000420002330B5D4
:100B40004FF040249E4622839342B4F820C01BD22B
:100B50001CF4706F14D19645F6D21CF0080FF3D137
:100B600010F801CB0EF1010EA4F808C09A42EBD1A7
:100B70009645E9D14FF0402213889B07FCD530BD44
:100B8000A588013301F8015B9645EFD2E5E700BF88
:100B90004FF48062014BA3F85C20704700000240D4
:100BA0004FF48062014BA3F85820704700000240C8
:100BB0004022024BA3F89820704700BF000002407B
:100BC0004022024BA3F89C20704700BF0000024067
:100BD000F8B170B504460F4E04EB8403B6EB430F37
:100BE0004FEA540507D2284604F00104FFF7F0FF4E
:100BF0006419F1D170BD4FF0E022052304EB841499
:100C0000A400546113611369DB03FCD50023136155
:100C100070BD70479CD80900014B1868704700BF31
:100C2000E0050420012000220249034BC1F8900096
:100C30001A60704700C00440E00504204FF6FF72C0
:100C40004FF0400C70B54FF0402101244FF0000EE2
:100C500044F243361C4B09251A81A3F84820A3F817
:100C60008820B3F88420194842EA0C02A3F88420B3
:100C7000A3F898C01A6822F03F0242F015021A60E9
:100C80001A6C22F440421A64B3F8442042F48062A1
:100C9000A3F84420A1F80CE00E820C839A896FEA35
:100CA00042426FEA52429A81C0F88050C0F89040A8
:100CB0000221074A11604FF480627046A3F8582061
:100CC000A3F898C070BD00BF0000024000C00440FF
:100CD00000E100E001230349034AC1F890301360AA
:100CE000704700BF00C00440E0050420344A2DE9ED
:100CF000F8431368334923F4700343F4A0031360EB
:100D00004A68074612F47C5FC2F3052340D04FF4D3
:100D100000692C485A010168002301F003010129F0
:100D2000B9FBF2F93DD0022941D00021264D03261E
:100D3000264C2846A68502F065FF3A46FB1702F0CE
:100D400061FF421E2285D317A5FB090102F05AFF5D
:100D50003A46FB1702F056FF00220123A0F500607F
:100D600040F40840A084A280A6812384238C43F011
:100D700006032384238C23F0060323844FF480424C
:100D8000134B1A600523A380A08A80B2BDE8F883C4
:100D90000C484FF040090168202201F003010129AD
:100DA000C1D1016811F40071BFD10A4DBFE7C56818
:100DB000094905F01F0501FB05F50021B7E700BF54
:100DC0000000024000C3044080BA8C010050004083
:100DD00000E100E00024F40040420F004FF0C90C95
:100DE0004CF614300A2110B5114A124C124B82B045
:100DF000A4F808C0D0601161019303E0019B013B9E
:100E0000019313B113691B05F8D500224CF6143C6D
:100E100040F20121094B064C4FF46130C4F80CC07C
:100E200019605A605A61FFF761FF012002B010BDDE
:100E300000C10440002C0040A086010000C3044013
:100E4000002330B5184A05469088184C20F0010060
:100E500083B0013990808B4217DA908AC007FAD5A7
:100E6000108880B20D281CD00A281AD0E8540191AD
:100E7000009303F07BFE2068806803F08DFD009BEB
:100E8000019901338B42084AE7DB00220A20EA5429
:100E900003F06CFE2368986803B0BDE8304003F0AF
:100EA0007BBD002BF1D1D6E700500040FC030420AD
:100EB0004FF400752DE9804895B0019501F006FCCE
:100EC00000F070FD0021514800F0A2FD4FF0010A32
:100ED00000244FF0011302A84FF0040B0693CDE954
:100EE000034ACDF814A0029401F0D8FA022307A80F
:100EF000CDE90833CDE90A3B8DF81C4001F0E0F85C
:100F000007A88DF81CA001F0DBF80CA8CDE90D4472
:100F1000CDE90F440C9401F07DFB52464FF0FF31B8
:100F2000504601F041FB52464FF00071204601F05F
:100F30003BFB4FF0FF3001F053FB0CA8FFF7E4F947
:100F40004FF0FF310B2200270C9BDFF8C4E0DFF8E5
:100F5000C4C0314E3148DFF8C890DFF8C880C3E91B
:100F60000145C3F834E0C3F830C0C3F824B0986238
:100F7000D962DA651E67C3F860A083F864A083F8BD
:100F800068A00294D9F80030986803F005FD20218C
:100F90000CA8FFF755FF0C9B4345F3D1BDF8343047
:100FA000542BEFD14FF400711F48FFF72DFA0021A9
:100FB0000846FFF7B5F91D4CFFF72EFEB8B1FFF755
:100FC00031FE01A918480195FFF78AFC0199A1B9E2
:100FD00007A903200797FFF7A3F93146079802F006
:100FE000BFFD70B90290FFF717FE0028E7D1029B02
:100FF0000133A3420293DFD9F4E70B48FFF74CF922
:10100000E6E70B4803F010FEBCE700BFE0FF390045
:1010100000401C4600504347007C12480000A0419D
:10102000FC03042053544152E4050420C0C62D00A3
:10103000B887000008B50020FFF7D0FE0020FFF7BA
:10104000FDFDFFF735FF00BF101E18DD00B54FF0A6
:101050000D0E01390A4A00EB010C11F8013F0A2B71
:1010600006D01380938A9B06FCD56145F5D100BD5F
:10107000A2F800E0938A9B06FCD50B78F1E7704755
:10108000005000404FF0FF30704700BF0020704715
:10109000012070470020704700207047042200B5EF
:1010A00083B003BA0DEB020168460093FFF746FDDB
:1010B000019800BA03B000BD30B583B00446FFF715
:1010C00067FD20230122684601A98DF80030FFF753
:1010D00035FD63BA0222684601A9ADF80030FFF77A
:1010E0002DFDFFF75DFDFFF753FD6D230025012268
:1010F000684601A98DF80030FFF720FD01226846FF
:1011000001A98DF80050FFF719FD42F21403A4F570
:101110008054A4B29C4208D82846FFF7BFFF04467B
:10112000FFF73EFD204603B030BD6846022201A90C
:10113000ADF80050FFF702FDBDF80440FFF730FDA9
:1011400064BAA4B2204603B030BD00BF094BD968D1
:101150005A69D3F804C00A44944506D99A6842F8FB
:101160002100DA680132DA6070476FF003029A6199
:10117000704700BFE40D042001298C460DD90021E1
:101180000CF18042054B013A00EB8202C3E901C039
:10119000C3E90312C3E9051119707047E40D042077
:1011A000044B08B19A68026009B1DA680A6098696C
:1011B000704700BFE40D042010B9054B187070474C
:1011C00000220120024BDA609A611870704700BF5C
:1011D000E40D0420094B586970B19B6803EB800152
:1011E0000020043B043953F8042F5FEA927C0CBFC3
:1011F000801801309942F6D1704700BFE40D0420F9
:1012000000B5C3688E46012B85B021D0D3B9D0F884
:1012100000C0BCF1020F35D02A4A90F804C0002368
:1012200092E803006A46009027488DF8041003C82E
:1012300002908DF80C1011780132614533D00133E2
:10124000052BF8D1002318468EF8003005B000BDFC
:101250000368022BE0D01D4B90F804C0002293E8F5
:1012600003006B4600901A48ADF8041003C80290C2
:10127000ADF80C101978013361451BD00132062AF4
:10128000F8D1DFE7134A017912680929ADF808207F
:101290004FEA12428DF80A2005D00A290FD00B29F7
:1012A00008BF6346CED16B441B7A8EF80030012014
:1012B00005B000BD6A44137A8EF80030F7E70123C9
:1012C000F1E700BFC0870000C8870000D08700009A
:1012D000D8870000E0870000C3688C46012B0FD040
:1012E0004BB90368022B2CD00379072B2ED00B2B84
:1012F00008BF05232BD0002318468CF80030704718
:101300000368022BF0D000B5174B85B090F804E0CD
:10131000002293E803006B4600901448ADF80410D7
:1013200003C80290ADF80C1019780133714512D042
:101330000132062AF8D1002318468CF8003005B097
:1013400000BD0379092B0CD00B2BD4D10A2301202B
:101350008CF8003070476A44137A01208CF8003012
:10136000EDE70F23F3E700BFE4870000EC87000000
:10137000F0B50F46044600269BB0DFF878C10DF1AA
:10138000340EBCE80F00AEE80F00BCE80F00AEE87A
:101390000F00BCE80F00AEE80F005CF8043B02ADA4
:1013A000CEF800309CE80F003E6085E80F00002C6E
:1013B0003BD0E3680B2B38D8A268022A35D82169C4
:1013C000032932D82068042800F29280DFE800F078
:1013D0002F3B52650300217E06A809910DF1020101
:1013E00006920793FFF70CFF054618B19DF80250CF
:1013F000013DEDB206A80DF10301FFF76DFF20B12D
:101400009DF80330013B2B44DDB202226368204685
:101410002B446360226001A9FFF7AAFF04226368DE
:1014200001985B1B2260636038601BB0F0BD606890
:1014300000EB8000800002F0A7F9E16902F0FCF9FE
:1014400002F0C0FBF0E760680DEB820200EB800069
:1014500093688000283003FB00F0143002F094F908
:10146000E16902F0E9F94FF07C5102F0DDF802F099
:10147000A9FBD9E701220DEB830361685B6B204672
:1014800001FB03331344C4E9002301A9FFF770FFF4
:101490000223019823600F30C6E76369032B25D828
:1014A000DFE803F01D1A11020122636811448B402A
:1014B0002046636001A92260FFF75AFF01981930A6
:1014C00003232360B0E70023204601A92360FFF730
:1014D0004FFF01981930F3E701232046F5E7637EBB
:1014E0002046002B0CBF04230223EEE71920E7E778
:1014F000002099E7F48700002DE9F04FC268037CD3
:101500000746894645688468D0F8148085B0561E21
:10151000002B45D021462846009202F02BFB009A72
:10152000002840F0A08008F1FF3393429A4628BF7C
:10153000334621467B61284628BFB24602F030FA86
:1015400001F02AFD05F0C0FB07463046884601F051
:1015500001FD02460B463846414601F09FFE064615
:1015600050460F4601F0F6FC02460B46304639461F
:1015700001F06AFD02460B460020574905F0DAFBF0
:1015800006460F46204601F007FD32463B4601F075
:101590005BFD01F0F3FFC9F8000005B0BDE8F08F76
:1015A000214628460092039302F0E4FA009AA0BB79
:1015B00008F1FF3090422ABF3346034630467B6134
:1015C00001F0C8FC074688462846214602F02AF862
:1015D00001F0E2FC02460B463846414601F034FD7C
:1015E00007463046884601F0B5FC02460B463846B1
:1015F000414601F053FE06460F46204601F0CCFC62
:1016000002460B463046394601F068FB01F0B6FF52
:10161000C9F8000005B0BDE8F08F08F10100904264
:10162000804653D001F096FC02460B46C7F8148062
:1016300029462046CDE9002301F0F4FF01F0ACFC7F
:10164000DDE9002301F000FD07463046884601F041
:1016500081FC02460B463846414601F01FFE064615
:101660000F462846CAE708F10103934228D01846DE
:10167000009301F06FFC82468B46009B7B612946FC
:10168000204602F08DF901F087FC05F01DFB524663
:101690005B4601F0D9FC07463046884601F05AFC0B
:1016A00002460B463846414601F0F8FD02460B461D
:1016B0000020094905F03EFB06460F46284662E732
:1016C0000021002200238A469346D7E74FF0000806
:1016D00000220023AAE700BF000024402DE9F043C8
:1016E00002290E46804683B039D8FFF751FA2023ED
:1016F00001AF0122394668468DF80030FFF71EFA27
:1017000046F62043022239466846ADF80030FFF71E
:1017100015FAFFF745FAFEB144464FF06D094FF058
:10172000000804EB8606FFF733FA012239466846C3
:101730008DF80090FFF702FA0122394668468DF8CD
:101740000080FFF7FBF90020FFF7A8FC44F8040B2A
:10175000FFF726FAA642E6D103B0BDE8F083FFF713
:1017600017FA5F2301AF0122394668468DF8003031
:101770000624FFF7E3F94FF00009012239466846D5
:101780008DF80090FFF7DAF9013CF6D1023EA8F19E
:1017900004050020FFF782FC0134B44245F8040F31
:1017A000F7D14FF04430FFF779FC03464FF0443057
:1017B00048F82430FFF772FCA500043548F805000E
:1017C00003B0BDE8F043FFF7EBB900BFF0B5524CF2
:1017D00083B02378012B3BD004460D46FFF7D8F9A0
:1017E00020230122684601A98DF80030FFF7A6F9F1
:1017F00063BA0222684601A9ADF80030FFF79EF9EE
:10180000FFF7CEF9FFF7C4F92D230122684601A99D
:101810008DF80030FFF792F942F21403A4F58054DA
:10182000A4B29C420CD96BBA0222684601A9ADF859
:101830000030FFF783F903B0BDE8F040FFF7B0B91F
:101840002846FFF72BFC03B0BDE8F040FFF7A8B92E
:10185000B0F5085F04D36FF00403A36103B0F0BDDB
:10186000D4F80CE0BEF1000F29D0236900221E46F7
:101870008708C0F3870502E0013272451FD093F854
:1018800000C004336545F7D1636956F82200D4F8E7
:1018900004C0734461F31F20634546F8220015D24B
:1018A0003B0603F0FE4321F07F41A2680B4343F067
:1018B000004342F82E30E3680133E360CEE763690A
:1018C000D4F804C003EB0E02624503D36FF00303A8
:1018D000A361C3E7820820691506061F266100F888
:1018E000042C50F8042C013361F31F2240F8042C1F
:1018F00005F0FE4521F07F416361734445EA010232
:10190000634542F00042E1D2A36843F82E20E36829
:101910000133E360A2E700BFE40D042030B5204CA2
:1019200083B02378012B04D003B0BDE83040FFF72B
:10193000C3BBD4F80CC0BCF1000F12D02369002245
:101940001D46C0F3870E02E00132944509D0197894
:1019500004338E45F8D155F82200C0F3172003B0A8
:1019600030BD0190FFF7A8FB6169E26863680A4433
:101970009A4211D22269019BA2F1040C9B08C4F87F
:1019800010C002F8043C52F8043C013160F31F23FC
:1019900042F8043C6161E2E76FF00303A361DEE714
:1019A000E40D042010B59CB070221649684603F07F
:1019B000B4FA0022144B6C46C3E90522DA601A70AF
:1019C000FFF7EEF8616834F8080BFFF7FFFE1CAB79
:1019D0009C42F7D140F20440FFF7A0FFA0F5AA43D4
:1019E000013B012B04D9B0F5AA4F06D01CB010BDA5
:1019F0000122064B1A701CB010BD0022034B1A7056
:101A00001CB010BDA0880000E40D0420000E0420CE
:101A100010B5044682B04FF400500191FFF77EFFED
:101A2000019904F02003012914D073B9230344BFA2
:101A300040F4002024F4002420EA04014FF4005074
:101A400002B0BDE81040FFF7C1BE40F0200024F016
:101A50002004EBE71BB120F0200024F02004220337
:101A600044BF20F4002024F4002444EA00014FF491
:101A7000005002B0BDE81040FFF7A8BE40EA810167
:101A800042F2F020FFF7A2BE10B504464FF400501A
:101A9000FFF744FF2378002B4AD020F020014FF4B9
:101AA0000050FFF793FE4FF40650FFF737FF014653
:101AB0006378012BA37808BF40F00101012BE37884
:101AC00008BF41F01001012B237908BF41F0040148
:101AD000012B637A08BF41F02001012BA37A08BFD4
:101AE00041F48071012BE37A08BF41F00201012B20
:101AF000237B08BF41F00801012B08BF41F04001E2
:101B00004FF40650FFF762FEA1796379B1FA81F1D3
:101B1000490949000BB941F00101E37942F2500053
:101B2000BDE81040012B08BF41F00401FFF74EBE95
:101B300040F02001B3E700BF10B5044642F2501058
:101B40002168FFF743FE616842F25810FFF73EFE3E
:101B5000A16842F25410FFF739FEE16842F25C10CE
:101B6000FFF734FEBDE810404FF4803142F20C0024
:101B7000FFF72CBE30B50A290546964685B01AD81F
:101B800002298C460BD90831C90041EA0E01BDB9C2
:101B900042F2F80005B0BDE83040FFF717BE6C46D2
:101BA0000F4BBEF1040F0FCB07C424F8023B4FEAE2
:101BB000134323700BD9F82141EA0E01002DE7D021
:101BC00042F2F40005B0BDE83040FFF7FFBD0CEB7A
:101BD0008C0CEC44F4449CF80010C900ECE700BF06
:101BE0001089000020B34369033B082B1DD883698B
:101BF000052B1AD810B5044642F2FC002168FFF705
:101C0000E5FDE268237C6168012B41EA421108BFCF
:101C100041F0100142F2F000FFF7D8FDD4E90512BF
:101C20000020FFF7A7FF002010BD6FF001007047F4
:101C30006FF00200704700BF036810B5022B044626
:101C40003AD0032B19D042F24800216BFFF7BEFDBA
:101C500023796279A3F10103B3FA83F35B09216865
:101C60005B01012A08BF43F0100342F21400BDE8F3
:101C7000104043EA4101FFF7A9BDA16842F21800F4
:101C8000FFF7A4FDE16842F21C00FFF79FFD216908
:101C900042F22000FFF79AFD616942F22800FFF747
:101CA00095FDA16942F22400FFF790FD42F22C005D
:101CB000E169FFF78BFDCBE7216A42F23000FFF7C5
:101CC00085FD616A42F23C00FFF780FDA16A42F2A5
:101CD0003800FFF77BFD42F23400E16AFFF776FD42
:101CE000B6E700BFD0E90432A3F10103B3FA83F3EE
:101CF00010B5044681695B091B03012A4FEA4101C3
:101D000008BF43F0010301F4FF71194342F21000D0
:101D1000FFF75CFD04F15000FFF764FF2046FFF77A
:101D20000BFF04F11C00BDE81040FFF785BF00BFAA
:101D300038B5254B05461B780C46012B24D00846A8
:101D4000002101F00DFF30B1BDE83840002142F222
:101D50003000FFF73BBD28464FF0994101F06CFD84
:101D6000214601F01DFE4FF07C5101F05DFC01F0B9
:101D700029FF164B0146984228BF1946BDE8384056
:101D800042F23000FFF722BD0846002101F0E8FED4
:101D90000028D9D128464FF09D4101F04DFD214644
:101DA00001F0FEFD4FF07C5101F03EFC01F00AFF16
:101DB0006FF07F439842014628BF1946BDE838407E
:101DC00042F23000FFF702BD000E0420FFFF0F00BB
:101DD00038B51D4B05461B780C46012B19D008461B
:101DE000002101F0BDFE08B1002038BD28464FF0AB
:101DF000994101F021FD214601F0D2FD4FF07C51C7
:101E000001F012FC01F0DEFE104B984228BF18468C
:101E100038BD0846002101F0A3FE0028E4D1284681
:101E20004FF09D4101F008FD214601F0B9FD4FF052
:101E30007C5101F0F9FB01F0C5FE6FF07F43984241
:101E400028BF184638BD00BF000E0420FFFF0F005A
:101E500010B50446D0E9023019016368626941EAAD
:101E60008311237E41EAC00141EA82010BB941F0AE
:101E70000101637E0BB941F002012368C3B942F24C
:101E80002810FFF7A3FCA18B638B01F03F01C3F384
:101E90000B0342F2201043EA0131FFF797FC21695E
:101EA00042F22410BDE8104041F02001FFF78EBC43
:101EB00042F23410FFF78AFCA18B638B01F03F01E3
:101EC000C3F30B0342F22C1043EA0131FFF77EFC0F
:101ED000216942F23010BDE8104041F02001FFF7C7
:101EE00075BC00BF10B5017E437EB1FA81F149098E
:101EF000044649000BB941F0010123696268042BD3
:101F000018BF41EAC301D4E902304FEA832343EA10
:101F1000401343EA4233226808BF41F004011943E9
:101F200052B942F2EC00FFF751FC616942F2E40061
:101F3000BDE81040FFF74ABC42F2E800FFF746FC5C
:101F4000616942F2E000BDE81040FFF73FBC00BF0E
:101F500000B583B00190FFF77BFF0198203003B0FC
:101F60005DF804EBFFF7BEBF10B5044642F2440033
:101F7000FFF7D4FC237CE268012B00F08001637C36
:101F800041EA020108BF41F01001A268012BD4E927
:101F900000304FEA033343EA002343EA823308BFA9
:101FA00041F04001194342F24400FFF70FFC237D4A
:101FB00003B910BD4FF40050FFF7B0FCBDE810406E
:101FC00040F480314FF40050FFF700BC10B50446D8
:101FD00082B042F2A8100191FFF7A0FC20F4F9535F
:101FE00042F2A810019923F01F0344EA012119438A
:101FF00002B0BDE81040FFF7E9BB00BF10B50446D2
:1020000042F24400FFF78AFC6368032B15D020F0EE
:10201000800142F24400FFF7D9FB6168090522689C
:10202000237A41EA0211012B42F2D000BDE81040B0
:1020300008BF41F00101FFF7C9BB40F0800142F247
:102040004400FFF7C3FB0021E9E700BF10B50446D9
:10205000D4E9012321681B0443EA0223194342F215
:10206000A810FFF7B3FB04F10C00FFF77DFFA18C74
:1020700042F2A800FFF7AAFBE18C42F2AC00FFF7A6
:10208000A5FB218D42F2B000FFF7A0FB618D42F26B
:10209000B400FFF79BFB04F12C00FFF7AFFFD4E97E
:1020A0000E1294F84030C90141EA021142F2C41004
:1020B000BDE81040012B08BF41F00101FFF786BBCE
:1020C00010B50021044642F20800FFF77FFB42F200
:1020D000D810FFF723FCD4E901239B0143EA4223F4
:1020E00000F03F01194342F2D810FFF76FFB21695E
:1020F00042F2E0100904FFF769FB2178E368A1F1DF
:102100000101B1FA81F1BDE8104049095B0342F2D7
:10211000080043EAC121FFF759BB00BFA1F101014B
:10212000B1FA81F14303490942F2080043EAC121AF
:10213000FFF74CBB08B54FF40850FFF7EFFB000C5E
:1021400008BD00BF38B5044642F20800FFF7E6FBC1
:102150000021054642F20800FFF738FB42F2D81092
:10216000FFF7DCFB236820F03F01194342F2D8104F
:1021700041F00801FFF72AFBE3799BB92379A168B5
:10218000A3F10103B3FA83F35B0943EA012142F2AD
:102190000400FFF71BFB2946BDE8384042F2080067
:1021A000FFF714BB002142F20400FFF70FFB0021F0
:1021B00042F26400FFF70AFBE0E700BF032800D902
:1021C0007047012181404FF48660FFF7FFBA00BFDE
:1021D00092B170B504460D468618214642F2D410DD
:1021E000FFF7F4FA013442F2700055F8041BFFF7D0
:1021F000EDFAA642F1D170BD704700BF026870B51C
:102200000546032A0BD8DFE802F002261A0ED0E9B1
:10221000012142F2CC1042EA0141FFF7D7FA2A7BB2
:10222000012A23D070BDD0E9012142F2E41042EA34
:102230000141FFF7CBFA2A7B012AF3D116E0D0E95E
:10224000012142F2D01042EA0141FFF7BFFA2A7B96
:10225000012AE7D10AE0D0E9012142F2E81042EA7E
:102260000141FFF7B3FA2A7B012ADBD1AA68002AD1
:10227000D8D06C682D69A618214642F2D410FFF719
:10228000A5FA013442F2700055F8041BFFF79EFADC
:10229000B442F1D170BD00BF014642F25400FFF7D5
:1022A00095BA00BF10B5044640F60800A18EFFF7AE
:1022B0008DFAE18E40F60C0001F00F01FFF786FA6F
:1022C000A18C4FF40160FFF781FAE18C40F6140015
:1022D00001F00F01FFF77AFA218F40F61800FFF79F
:1022E00075FA618F40F61C0001F00F01FFF76EFADE
:1022F000218D4FF40260FFF769FA618D40F62400EA
:1023000001F00F01FFF762FAA18F40F62800FFF7F6
:102310005DFAE18F40F62C0001F00F01FFF756FA4D
:10232000A18D4FF40360FFF751FAE18D40F63400C0
:1023300001F00F01FFF74AFAB4F8401040F63800F8
:10234000FFF744FAB4F8421040F63C0001F00F01E8
:10235000FFF73CFA218E4FF40460FFF737FA618EE5
:1023600040F6440001F00F01FFF730FA012140F67A
:102370001C20FFF72BFAD4E9023261689B0012019E
:1023800002F0300203F00C03134301F003010B438E
:10239000D4E9041289014FEA022CC9B219430CF4A2
:1023A000407C4CEA010CD4E906319A020B03216A05
:1023B00002F4406242EA0C0203F4405389031343DF
:1023C00089B2194340F60400FFF700FA94F844304C
:1023D0002168A3F10103B3FA83F3BDE810405B0960
:1023E0004FF4006043EA4101FFF7F0B910B504462D
:1023F0004FF40060FFF792FA012C14BF20F00101A6
:1024000040F0010189B24FF40060BDE81040FFF7D1
:10241000DDB900BF38B505464FF48260FFF77EFA9C
:102420004408420002F4007204F48074C3B21443FE
:102430001C434FF4826044F02001FFF7C7F942F2D9
:10244000BC00FFF76BFA012D13D040F0040142F2FB
:10245000BC00FFF7BBF94FF42160FFF75FFA83057B
:10246000F9D524F020014FF48260BDE83840FFF731
:10247000ADB920F0040142F2BC00FFF7A7F94FF418
:102480002160FFF74BFA8205F9D524F020014FF4C3
:102490008260BDE83840FFF799B900BF38B50446FF
:1024A0004FF42160FFF73AFAE37C0546012B35D063
:1024B000237C012B48D0A37C012B61D0D4E90213EB
:1024C0009B0103F4707301F03F0119434FF48160E5
:1024D000FFF77CF90A20FEF77BFBD4E9003140F2DC
:1024E000144043EA8101FFF771F9E37C0BB925F051
:1024F0000405237C0BB925F00205A37C0BB925F05C
:1025000001054CF6143140F60C20FFF75FF929461F
:10251000BDE838404FF42160FFF758B94CF614314C
:1025200040F60C2045F00405FFF750F929464FF41A
:102530002160FFF74BF94FF42160FFF7EFF94105F8
:10254000F9D5237C012BB6D14CF6143140F60C2082
:1025500045F00205FFF73AF929464FF42160FFF7ED
:1025600035F94FF42160FFF7D9F98205F9D5607C80
:10257000012818BF0020FFF74DFFA37C012B9DD140
:102580004CF6143140F60C2045F00105FFF71EF91A
:1025900029464FF42160FFF719F94FF42160FFF746
:1025A000BDF9C305F9D589E710B543F2080343F235
:1025B0000C04012818BF1C4682B02046CDE900213A
:1025C000FFF7ACF9009A0199012A0CBF014320EAF8
:1025D0000101204602B0BDE81040FFF7F7B800BF88
:1025E000014643F20400FFF7F1B800BF43F21003C5
:1025F00043F2140200B5002814BF1046184683B0F9
:102600000191FFF78BF90199084214BF01200020C6
:1026100003B000BD10B5044600202168FFF7D6F8CE
:1026200061680420FFF7D2F8A1680C20FFF7CEF80C
:10263000E1680820FFF7CAF821691420BDE81040BE
:10264000FFF7C4B8014642F21810FFF7BFB800BF49
:1026500008B5002142F21C10FFF7B8F8BDE80840A9
:10266000012142F21C10FFF7B1B800BF70B5064659
:102670004FF48060FFF752F944F24415A84222D08B
:10268000002E4FF0010408DC0BE04FF48060FFF7F0
:1026900045F9A84204F1010401D0A642F5D2204632
:1026A00070BD4FF48060FFF739F9A84208D04FF4AD
:1026B0008060FFF733F9A84204F10204F1D1EEE79C
:1026C0000134204670BD0124E9E700BF08B5FEF7DC
:1026D00077FAC820FEF77CFAFEF76AFABDE80840F0
:1026E0004FF4FA70FEF774BA2DE9F04F0446D1B0FA
:1026F000D84D0DF1340C88460FCDACE80F000FCD4E
:10270000ACE80F0005F11C0755F8043B0DF11C0E59
:10271000CCF800300FCDAEE80F0095E8030016AE00
:102720008EE803000FCF0FC60FCF0FC697E80F003C
:1027300086E80F00002C00F087826568002128469B
:10274000CDF8048001F00CFA002840F07A82B8F14C
:10275000000F00F07982C049E06801F029FA63694E
:102760008046082B00F004820DAA52F823902846D8
:1027700000F012FC0022B94B00F066FC0646484609
:102780000F4600F0E7FB02460B463046394600F0A4
:1027900085FD00F0F3FEB249064601F0F5F9074663
:1027A0003046002F40F0D481AE4901F0EDF90546E6
:1027B0003046002D00F02182AA4901F0F1F8AA4923
:1027C00001F03AF8014600F02FFF012501F0FAF977
:1027D0004619EE4040F2FF7343F20C009E4228BFC0
:1027E0001E46FFF79BF8009043F20C00FFF796F8A7
:1027F00040F0020143F20C00FEF7E8FF4FF40050F6
:10280000FFF78CF820F4471121F47F5141F40021A7
:102810004FF4005041F02001FEF7D8FF0023934A07
:1028200003A8CDF8153004930392FFF72DF9072381
:10283000CDE93757399304F110050DF58E7C04F17D
:10284000300E674628686968AA68EB6810357545D8
:102850000FC70CF1100CF4D14FF400732868012558
:10286000CCF80000359340F60213369302233A93D6
:1028700040F20113ADF8EC307D4BD4F808901B7892
:1028800000214846AB420CBF1E271A27CDE933551D
:1028900001F066F9002840F07B81A7F12001C7F123
:1028A000200325FA03F305FA01F1194305FA07F0AD
:1028B00000F084FF216800F0BFFF494601F070F886
:1028C0004FF07C5100F0B0FE01F07CF91A2F14BFDC
:1028D0006FF07F43674B984228BF18460025CDE92B
:1028E000420633A8CDE94455FFF7FCF90123142231
:1028F0002493ADF8A4308DF8A830B8FA88F02423DA
:102900002392032222934009A36B216C28902792E3
:10291000E06B626C26932DAB2C9507C3636B22A8EA
:102920002593CDE930552B953295FFF78FFB4FF46A
:102930000050FEF7F3FF40F4881141F464614FF456
:102940000050FEF743FF4FF40050FEF7E7FF40F45E
:1029500081414FF40050FEF739FF1920FEF738F996
:102960004FF40050FEF7DAFF40F401414FF40050FD
:10297000FEF72CFF43F21400FEF7D0FF8107F9D5D4
:102980004FF40050FEF7CAFF20F4414121F08001CE
:102990004FF40050FEF71AFF022143F20400FEF745
:1029A00015FF42F27800FEF7B9FF054642F27C00BF
:1029B000FEF7B4FF064642F2A810FEF7AFFF20F480
:1029C000F95121F01F0141F4807141F0010142F2FF
:1029D000A810FEF7FBFE4FF40050FEF79FFF40F4F7
:1029E00081414FF40050FEF7F1FE1920FEF7F0F898
:1029F0004FF40050FEF792FF40F401414FF40050B5
:102A0000FEF7E4FE43F21400FEF788FF8207F9D5D3
:102A10004FF40050FEF782FF20F4414121F0800185
:102A20004FF40050FEF7D2FE022143F20400FEF7FD
:102A3000CDFE42F27800FEF771FF074642F27C00BD
:102A4000FEF76CFF01460C4B15F4003F45EA03020C
:102A500014E000BF208900000050C34B0080964066
:102A6000000020420000484300E0FF440101010053
:102A7000000E0420FFFF0F000000FCFF14BF1046F3
:102A8000284616F4003F46EA030508BF354617F40A
:102A9000003F47EA030943EA010308BFB94611F4BE
:102AA000003F14BF1F460F4600F072FE0646684204
:102AB00000F06EFE31460546304600F0BDFE294668
:102AC0008046284600F0B8FE0146404600F0ACFDC6
:102AD0008046C9F1000000F05BFE8146384600F0F8
:102AE00057FE49468246304600F0A6FE51468346D0
:102AF000284600F0A1FE67680146584600F094FDA4
:102B0000414600F04DFF394600F096FE514683469F
:102B1000304600F091FE49460646284600F08CFEFD
:102B20000146304600F07EFD414600F039FF39464F
:102B300000F082FEA36C054663BB019BC3F800B0A6
:102B40005860009B9B074DD5002051B0BDE8F08F29
:102B50003F4900F025FF3F4900F06EFE014600F0BE
:102B600063FD012701F02EF8C6193D46FE4031E60F
:102B7000636AD4F818900A2B3FF4F9AD0DEB830388
:102B80009A6DA36A07A951F8233013449944EEE5DE
:102B90000020A3E65946584600F04EFE294604465A
:102BA000284600F049FE0146204600F03DFD00F0B9
:102BB000F3F904F02DF900F0E1FC0346019C5846BE
:102BC000236000F0E9F906460F46284600F0E4F9D4
:102BD0003B46324604F076F800F0D0FC009B606083
:102BE0009B07B1D443F20C00FEF798FE20F00201DF
:102BF00043F20C00FEF7EAFDA6E7174900F0C4FF18
:102C00000746304677B1144900F0CAFE114900F07A
:102C100013FE014600F008FD012700F0D3FFC6199E
:102C2000FE40D7E50D4900F0BBFE0A4900F004FE66
:102C3000014600F0F9FC00F0C5FF461C3D46760851
:102C4000C8E56FF0010080E76FF002007DE700BF8C
:102C50000000204200E0FF440000A0430000C84400
:102C6000FEE700BF08B5084A084B934208D2013A74
:102C7000D21A22F0030218460549043202F04DF937
:102C800000F008F8FDF7D4FAC40504200000042081
:102C9000BC8D000044F659020A4BDA605A6942F0D2
:102CA00003025A61EFF3108272B64FF4E021064B33
:102CB000064898605962BFF36F8FBFF34F8F82F35E
:102CC0001088704700C0044000ED00E000000000E4
:102CD00081F0004102E000BF83F0004330B54FEACD
:102CE00041044FEA430594EA050F08BF90EA020F3A
:102CF0001FBF54EA000C55EA020C7FEA645C7FEACD
:102D0000655C00F0E2804FEA5454D4EB5555B8BFEF
:102D10006D420CDD2C4480EA020281EA030382EA60
:102D2000000083EA010180EA020281EA0303362DF2
:102D300088BF30BD11F0004F4FEA01314FF4801CC5
:102D40004CEA113102D0404261EB410113F0004FD7
:102D50004FEA03334CEA133302D0524263EB43038E
:102D600094EA050F00F0A780A4F10104D5F1200E2C
:102D70000DDB02FA0EFC22FA05F2801841F1000187
:102D800003FA0EF2801843FA05F359410EE0A5F15B
:102D900020050EF1200E012A03FA0EFC28BF4CF08C
:102DA000020C43FA05F3C01851EBE37101F0004542
:102DB00007D54FF0000EDCF1000C7EEB00006EEB4F
:102DC0000101B1F5801F1BD3B1F5001F0CD34908D9
:102DD0005FEA30004FEA3C0C04F101044FEA445230
:102DE00012F5800F80F09A80BCF1004F08BF5FEAB7
:102DF000500C50F1000041EB045141EA050130BD97
:102E00005FEA4C0C404141EB0101013C28BFB1F5A8
:102E1000801FE9D291F0000F04BF01460020B1FAF3
:102E200081F308BF2033A3F10B03B3F120020CDAC6
:102E30000C3208DD02F1140CC2F10C0201FA0CF0A4
:102E400021FA02F10CE002F11402D8BFC2F1200C09
:102E500001FA02F120FA0CFCDCBF41EA0C019040BF
:102E6000E41AA2BF01EB0451294330BD6FEA040408
:102E70001F3C1CDA0C340EDC04F11404C4F12002F3
:102E800020FA04F001FA02F340EA030021FA04F305
:102E900045EA030130BDC4F10C04C4F1200220FA5C
:102EA00002F001FA04F340EA0300294630BD21FA9A
:102EB00004F0294630BD94F0000F83F4801306BF60
:102EC00081F480110134013D4EE77FEA645C18BF54
:102ED0007FEA655C29D094EA050F08BF90EA020FEB
:102EE00005D054EA000C04BF1946104630BD91EAE3
:102EF000030F1EBF0021002030BD5FEA545C05D1E6
:102F00004000494128BF41F0004130BD14F5800424
:102F10003CBF01F5801130BD01F0004545F0FE4198
:102F200041F470014FF0000030BD7FEA645C1ABFCD
:102F3000194610467FEA655C1CBF0B46024650EA04
:102F4000013406BF52EA033591EA030F41F4002130
:102F500030BD00BF90F0000F04BF0021704730B5B6
:102F60004FF4806404F132044FF000054FF000018B
:102F700050E700BF90F0000F04BF0021704730B54C
:102F80004FF4806404F1320410F0004548BF404221
:102F90004FF000013EE700BF42004FEAE2014FEA76
:102FA00031014FEA02701FBF12F07F4393F07F4F51
:102FB00081F06051704732F07F4208BF704793F054
:102FC0007F4F04BF41F40021704730B54FF4607467
:102FD00001F0004521F000411CE700BF50EA01026A
:102FE00008BF704730B54FF000050AE050EA010213
:102FF00008BF704730B511F0004502D5404261EB83
:1030000041014FF4806404F132045FEA915C3FF4C3
:10301000D8AE4FF003025FEADC0C18BF03325FEA60
:10302000DC0C18BF033202EBDC02C2F1200300FA11
:1030300003FC20FA02F001FA03FE40EA0E0021FA36
:1030400002F11444BDE600BF70B54FF0FF0C4CF424
:10305000E06C1CEA11541DBF1CEA135594EA0C0FD6
:1030600095EA0C0F00F0DEF82C4481EA030621EA11
:103070004C5123EA4C5350EA013518BF52EA03354C
:1030800041F4801143F4801338D0A0FB02CE4FF0FE
:103090000005E1FB02E506F00042E0FB03E54FF02E
:1030A0000006E1FB03569CF0000F18BF4EF0010E26
:1030B000A4F1FF04B6F5007F64F5407404D25FEA22
:1030C0004E0E6D4146EB060642EAC62141EA5551D5
:1030D0004FEAC52040EA5E504FEACE2EB4F1FD0C17
:1030E00088BFBCF5E06F1ED8BEF1004F08BF5FEA95
:1030F000500E50F1000041EB045170BD06F0004647
:1031000046EA010140EA020081EA0301B4EB5C04F3
:10311000C2BFD4EB0C0541EA045170BD41F48011EB
:103120004FF0000E013C00F3AB8014F1360FDEBF10
:10313000002001F0004170BDC4F10004203C35DAEC
:103140000C341BDC04F11404C4F1200500FA05F36F
:1031500020FA04F001FA05F240EA020001F0004210
:1031600021F0004110EBD37021FA04F642EB060186
:103170005EEA430E08BF20EAD37070BDC4F10C04B0
:10318000C4F1200500FA04F320FA05F001FA04F274
:1031900040EA020001F0004110EBD37041F1000160
:1031A0005EEA430E08BF20EAD37070BDC4F120056B
:1031B00000FA05F24EEA020E20FA04F301FA05F2D3
:1031C00043EA020321FA04F001F0004121FA04F27B
:1031D00020EA020000EBD3705EEA430E08BF20EA4B
:1031E000D37070BD94F0000F0FD101F00046400085
:1031F00041EB010111F4801F08BF013CF7D041EA07
:10320000060195F0000F18BF704703F0004652000A
:1032100043EB030313F4801F08BF013DF7D043EADB
:103220000603704794EA0C0F0CEA135518BF95EA91
:103230000C0F0CD050EA410618BF52EA4306D1D118
:1032400081EA030101F000414FF0000070BD50EA37
:10325000410606BF1046194652EA430619D094EAC1
:103260000C0F02D150EA013613D195EA0C0F05D1AB
:1032700052EA03361CBF104619460AD181EA0301FF
:1032800001F0004141F0FE4141F470014FF00000B7
:1032900070BD41F0FE4141F4780170BD70B54FF052
:1032A000FF0C4CF4E06C1CEA11541DBF1CEA1355D2
:1032B00094EA0C0F95EA0C0F00F0A7F8A4EB0504B4
:1032C00081EA030E52EA03354FEA013100F08880AB
:1032D0004FEA03334FF0805545EA131343EA126374
:1032E0004FEA022245EA111545EA10654FEA002629
:1032F0000EF000419D4208BF964244F1FD0404F5E2
:10330000407402D25B084FEA3202B61A65EB03053D
:103310005B084FEA32024FF480104FF4002CB6EBFA
:10332000020E75EB030E22BFB61A754640EA0C007A
:103330005B084FEA3202B6EB020E75EB030E22BFBA
:10334000B61A754640EA5C005B084FEA3202B6EBFB
:10335000020E75EB030E22BFB61A754640EA9C00BA
:103360005B084FEA3202B6EB020E75EB030E22BF8A
:10337000B61A754640EADC0055EA060E18D04FEA48
:10338000051545EA16754FEA06164FEAC30343EAE8
:1033900052734FEAC2025FEA1C1CC0D111F4801FB5
:1033A0000BD141EA00014FF000004FF0004CB6E7AE
:1033B00011F4801F04BF01430020B4F1FD0C88BF4D
:1033C000BCF5E06F3FF6AFAEB5EB030C04BFB6EB58
:1033D000020C5FEA500C50F1000041EB045170BD4B
:1033E0000EF0004E4EEA113114EB5C04C2BFD4EB78
:1033F0000C0541EA045170BD41F480114FF0000EFC
:10340000013C90E645EA060E8DE60CEA135594EA77
:103410000C0F08BF95EA0C0F3FF43BAF94EA0C0F7A
:103420000AD150EA01347FF434AF95EA0C0F7FF4EF
:1034300025AF104619462CE795EA0C0F06D152EA43
:1034400003353FF4FDAE1046194622E750EA410627
:1034500018BF52EA43067FF4C5AE50EA41047FF438
:103460000DAF52EA43057FF4EBAE12E74FF0FF3C9D
:1034700006E000BF4FF0010C02E000BF4FF0010C6E
:103480004DF804CD4FEA410C7FEA6C5C4FEA430CE7
:1034900018BF7FEA6C5C1BD001B050EA410C0CBF36
:1034A00052EA430C91EA030F02BF90EA020F002098
:1034B000704710F1000F91EA030F58BF994208BFFF
:1034C00090422CBFD8176FEAE37040F001007047BC
:1034D0004FEA410C7FEA6C5C02D150EA013C07D113
:1034E0004FEA430C7FEA6C5CD6D152EA033CD3D05E
:1034F0005DF8040B704700BF8446104662468C4658
:103500001946634600E000BF01B5FFF7B7FF00288A
:1035100048BF10F1000F01BD4DF808EDFFF7F4FFB3
:103520000CBF012000205DF808FB00BF4DF808ED3E
:10353000FFF7EAFF34BF012000205DF808FB00BF61
:103540004DF808EDFFF7E0FF94BF012000205DF883
:1035500008FB00BF4DF808EDFFF7CEFF94BF012038
:1035600000205DF808FB00BF4DF808EDFFF7C4FF31
:1035700034BF012000205DF808FB00BF4FEA410284
:10358000B2F1E04324BFB3F5001CDCF1FE5C0DD9C1
:1035900001F0004C4FEAC0024CEA5070B2F1004F0B
:1035A00040EB830008BF20F00100704711F0804F0E
:1035B00021D113F13872BCBF01F00040704741F4D3
:1035C00080114FEA5252C2F11802C2F1200C10FAD7
:1035D0000CF320FA02F018BF40F001004FEAC123BB
:1035E0004FEAD32303FA0CFC40EA0C0023FA02F35F
:1035F0004FEA4303CCE77FEA625307D150EA013335
:103600001EBF4FF0FE4040F44000704701F0004004
:1036100040F0FE4040F40000704700BF80F00040E2
:1036200002E000BF81F0004142001FBF5FEA41039A
:1036300092EA030F7FEA226C7FEA236C6AD04FEA9A
:103640001262D2EB1363C1BFD218414048404140DF
:10365000B8BF5B42192B88BF704710F0004F40F491
:10366000000020F07F4018BF404211F0004F41F4AD
:10367000000121F07F4118BF494292EA030F3FD079
:10368000A2F1010241FA03FC10EB0C00C3F120038C
:1036900001FA03F100F0004302D5494260EB40001B
:1036A000B0F5000F13D3B0F1807F06D340084FEA86
:1036B000310102F10102FE2A51D2B1F1004F40EB7B
:1036C000C25008BF20F0010040EA030070474900E3
:1036D00040EB0000013A28BFB0F5000FEDD2B0FA80
:1036E00080FCACF1080CB2EB0C0200FA0CF0AABFA3
:1036F00000EBC25052421843BCBFD0401843704741
:1037000092F0000F81F4000106BF80F40000013246
:10371000013BB5E74FEA41037FEA226C18BF7FEA1D
:10372000236C21D092EA030F04D092F0000F08BF5F
:103730000846704790EA010F1CBF0020704712F046
:103740007F4F04D1400028BF40F00040704712F185
:1037500000723CBF00F50000704700F0004343F0EA
:10376000FE4040F4000070477FEA226216BF084620
:103770007FEA23630146420206BF5FEA412390EAE3
:10378000010F40F4800070474FF0000304E000BFD9
:1037900010F0004348BF40425FEA000C08BF70478A
:1037A00043F0964301464FF000001CE050EA01024E
:1037B00008BF70474FF000030AE000BF50EA010263
:1037C00008BF704711F0004302D5404261EB410150
:1037D0005FEA010C02BF84460146002043F0B64375
:1037E00008BFA3F18053A3F50003BCFA8CF2083A9A
:1037F000A3EBC25310DB01FA02FC634400FA02FCA3
:10380000C2F12002BCF1004F20FA02F243EB0200A9
:1038100008BF20F00100704702F1200201FA02FC0B
:10382000C2F1200250EA4C0021FA02F243EB0200FE
:1038300008BF20EADC7070474FF0FF0C1CEAD05242
:103840001EBF1CEAD15392EA0C0F93EA0C0F6FD003
:103850001A4480EA010C400218BF5FEA41211ED0E1
:103860004FF0006343EA501043EA5111A0FB0131CD
:103870000CF00040B1F5000F3EBF490041EAD371A2
:103880005B0040EA010062F17F02FD2A1DD8B3F11E
:10389000004F40EBC25008BF20F00100704790F08D
:1038A000000F0CF0004C08BF49024CEA502040EADF
:1038B00051207F3AC2BFD2F1FF0340EAC2507047A5
:1038C00040F400004FF00003013A5DDC12F1190FE3
:1038D000DCBF00F000407047C2F10002410021FA55
:1038E00002F1C2F1200200FA02FC5FEA310040F16D
:1038F000000053EA4C0308BF20EADC70704792F0E6
:10390000000F00F0004C02BF400010F4000F013A1D
:10391000F9D040EA0C0093F0000F01F0004C02BF18
:10392000490011F4000F013BF9D041EA0C018FE787
:103930000CEAD15392EA0C0F18BF93EA0C0F0AD08D
:1039400030F0004C18BF31F0004CD8D180EA0100B3
:1039500000F00040704790F0000F17BF90F0004F4C
:10396000084691F0000F91F0004F14D092EA0C0F2E
:1039700001D142020FD193EA0C0F03D14B0218BFC1
:10398000084608D180EA010000F0004040F0FE4007
:1039900040F40000704740F0FE4040F440007047A3
:1039A0004FF0FF0C1CEAD0521EBF1CEAD15392EA22
:1039B0000C0F93EA0C0F69D0A2EB030280EA010C12
:1039C00049024FEA402037D04FF0805343EA1111AB
:1039D00043EA10130CF000408B4238BF5B0042F109
:1039E0007D024FF4000C8B4224BF5B1A40EA0C00AE
:1039F000B3EB510F24BFA3EB510340EA5C00B3EBE0
:103A0000910F24BFA3EB910340EA9C00B3EBD10FCD
:103A100024BFA3EBD10340EADC001B0118BF5FEA1F
:103A20001C1CE0D1FD2A3FF650AF8B4240EBC25048
:103A300008BF20F0010070470CF0004C4CEA502009
:103A40007F32C2BFD2F1FF0340EAC250704740F458
:103A500000004FF00003013A37E792F0000F00F04A
:103A6000004C02BF400010F4000F013AF9D040EAC8
:103A70000C0093F0000F01F0004C02BF490011F45C
:103A8000000F013BF9D041EA0C0195E70CEAD15354
:103A900092EA0C0F08D142027FF47DAF93EA0C0F3B
:103AA0007FF470AF084676E793EA0C0F04D14B021F
:103AB0003FF44CAF08466EE730F0004C18BF31F0D1
:103AC000004CCAD130F000427FF45CAF31F00043CB
:103AD0007FF43CAF5FE700BF4FF0FF3C06E000BF64
:103AE0004FF0010C02E000BF4FF0010C4DF804CD87
:103AF0004FEA40024FEA41037FEA226C18BF7FEA97
:103B0000236C11D001B052EA530C18BF90EA010F98
:103B100058BFB2EB030088BFC81738BF6FEAE17027
:103B200018BF40F0010070477FEA226C02D15FEAC3
:103B3000402C05D17FEA236CE4D15FEA412CE1D02F
:103B40005DF8040B704700BF844608466146FFE7F6
:103B50000FB5FFF7C9FF002848BF10F1000F0FBDD8
:103B60004DF808EDFFF7F4FF0CBF012000205DF8D1
:103B700008FB00BF4DF808EDFFF7EAFF34BF012056
:103B800000205DF808FB00BF4DF808EDFFF7E0FFEF
:103B900094BF012000205DF808FB00BF4DF808ED40
:103BA000FFF7D2FF94BF012000205DF808FB00BFA3
:103BB0004DF808EDFFF7C8FF34BF012000205DF885
:103BC00008FB00BF42000ED2B2F1FE4F0BD34FF004
:103BD0009E03B3EB126209D44FEA002343F0004383
:103BE00023FA02F070474FF00000704712F1610FA6
:103BF00001D1420202D14FF0FF3070474FF0000078
:103C0000704700BF53B94AB9002908BF00281CBF3C
:103C10004FF0FF314FF0FF3000F098B9ADF1080CD4
:103C20006DE904CE00F006F8DDF804E0DDE90223DA
:103C300004B070472DE9F047074616460846BC46D3
:103C40000D46089A002B4FD18E42B64669D9B6FA76
:103C500086F44CB1C4F12003A54027FA03F306FA19
:103C600004FE1D4307FA04FC4FEA1E47B5FBF7F1BB
:103C700007FB11551FFA8EF04FEA1C4343EA054338
:103C800001FB00F59D420AD91EEB030301F1FF364B
:103C900080F0F6809D4240F2F380023973445B1B52
:103CA000B3FBF7F507FB153305FB00F01FFA8CFC9F
:103CB0004CEA034C60450AD91EEB0C0C05F1FF33AE
:103CC00080F0E080604540F2DD80F444023DACEBE2
:103CD000000C45EA0140002122B12CFA04F3002433
:103CE000C2E90034BDE8F0878B4206D90AB1C2E9C7
:103CF000007100210846BDE8F087B3FA83F100297E
:103D00004CD1834202D3BE4200F20F81B7EB060CC6
:103D100060EB030301201D46002AE3D0C2E900C581
:103D2000E0E7002E00F095801C46B6FA86F3002BE3
:103D300040F0AA808D1B0121370CB6B2B5FBF7F01D
:103D400007FB10554FEA1C4343EA054306FB00F509
:103D50009D4208D91EEB030300F1FF3802D29D42B9
:103D600000F2E88040465B1BB3FBF7F507FB153319
:103D70001FFA8CFC4CEA034C06FB05F3634508D99B
:103D80001EEB0C0C05F1FF3602D2634500F2CF802A
:103D90003546ACEB030C45EA00409DE7C1F1200538
:103DA0008B4026FA05FC4CEA030C20FA05F44FEA96
:103DB0001C4E06FA01F9B4FBFEF6884027FA05F31B
:103DC00003430EFB16401FFA8CF807FA01FA1F0C8A
:103DD00047EA004406FB08F0A0420AD91CEB0404A1
:103DE00006F1FF3780F09F80A04240F29C80023EA7
:103DF0006444241AB4FBFEF00EFB104400FB08FEE2
:103E00009BB243EA04439E450AD91CEB030300F12D
:103E1000FF3480F086809E4540F283800238634400
:103E200040EA0640A0FB0974A3EB0E03A342BE4682
:103E3000264665D362D052B1BAEB0E0463EB06039B
:103E400003FA05F5CC402543CB40C2E900530021DD
:103E500048E77B0843EAC1734C08190C41EA044166
:103E60009BB2B4FBF6F04FEAC77C43EA0143354608
:103E7000B1FBF6F137461F245D1B41EA00415DE7C7
:103E800031460CE71D4622E71C4606FA03FEC3F145
:103E9000200321FA03F5A04027FA03F307FA04FCF4
:103EA0004FEA1E470343B5FBF7F007FB10551FFA17
:103EB0008EF6190C41EA054100FB06F58D423ED90C
:103EC0001EEB010101D28D4221D8491BB1FBF7F550
:103ED000A84605FB06F5013807FB18119BB243EA1B
:103EE0000143AB4229D21EEB030308F1FF31C3D2D9
:103EF000AB42C1D2A8F102017344BDE7BA459AD2E0
:103F0000B7EB090E64EB0C040138264693E7AEEBE1
:103F100005052944B1FBF7F50238A84605FB06F56F
:103F2000DAE720467CE73E4663E70846F4E6F444D9
:103F3000023D2EE70238734415E741469CE7491BD2
:103F4000B1FBF7F5A84605FB06F5C5E7704700BFCE
:103F5000002301461A46184600F0F6BF08B5064B86
:103F6000044613B1002101F04BF8044B1B6803B168
:103F70009847204602F0A4FE015000003C0F0420A8
:103F8000002B2DE9F0471D46BBBF03F100431D4642
:103F900000232D2388B0149F144627F02007B8BFB4
:103FA0001446129A462F109EDDF84CA0137004D0D0
:103FB000452F00D10136022300E0032307AA049213
:103FC00006AACDE902A2CDE9003622462B4601F031
:103FD000FFF8472F80461AD1119BDB070ED500EB67
:103FE00006090022002320462946FFF795FA08B16A
:103FF000CDF81C903022079B4B451ED34046079BB3
:10400000159AA3EB0803136008B0BDE8F087462FAC
:1040100000EB0609E5D10378302B0AD100220023FA
:1040200020462946FFF778FA18B9C6F10106CAF802
:104030000060DAF800309944D3E7591C07911A70F0
:10404000D9E7F7B50029B6BF2D232B23494209290B
:10405000027043702BDD0DF10704A6460A26871C6B
:10406000B1FBF6F5A44606FB1512632902F13002F6
:10407000294604F1FF340CF8012CF1DC3031ACF1AD
:10408000020204F8011C1446411C72450AD30DF1CA
:104090000903A3EB0C03A64538BF00233B44181AC1
:1040A00003B0F0BD12F8013B01F8013FEDE730230A
:1040B00030318370C170031DF1E700002DE9F04F2E
:1040C00093B00C46DDF8708016461F46054600F09A
:1040D00091FE036818460B9300F02DFF0023109308
:1040E000D8F8003094F818A0073323F00703F3E85A
:1040F0000212D4F800B0CDE90812C8F80030134617
:104100000A46C4E91223DDE9088323F000490C9034
:104110004FF0FF32404649469A4B02F075FD70BBA6
:104120004FF0FF3240464946964BFFF709FA30BB45
:10413000DDE9080100220023FFF7F8F910B12D2373
:1041400084F84330904A914BBAF1470F8CBF9046A8
:10415000984603234FF0000923612BF004032360EA
:10416000334621462846009711AA00F0D1F90130C4
:1041700040F08F804FF0FF3013B0BDE8F08FDDE9E5
:1041800008231046194602F03FFD40B1099B804AC2
:10419000002BBCBF2D2384F843307E4BD4E76368EB
:1041A0000AF0DF095A1C3ED10623636000224BF45B
:1041B00080632360069210AACDE904A20FAA03929D
:1041C0000DF13B02CDE90132636828460093DDE939
:1041D0000823FFF7D5FEB9F1470F80460F9929D183
:1041E000C81C02DB63688B4241DAAAF1020A5FFA5B
:1041F0008AFA5246013904F150000F91FFF721FF6E
:10420000109A81461318012A236102DC2268D20722
:1042100001D5013323619DF83B30002BA0D02D2325
:1042200084F843309CE7B9F1470FBFD1002BBDD1D3
:104230000123BAE7BAF1650FDBD9BAF1660F18D1DD
:10424000002963680BDD216113B92268D00702D50C
:1042500001330B4423614FF00009A165DBE713B97B
:104260002268D20701D50233F4E70123F2E74FF0C9
:10427000670A109B8B4205DC23682161D807EAD5C9
:104280004B1CE7E70029CCBF0122C1F10202134415
:10429000E0E723685A0507D4236942463146284699
:1042A000B847013028D165E7BAF1650F40F2DC80EC
:1042B000D4E9120100220023FFF72EF990B3012365
:1042C00031462846344AB84701303FF453AFDDE960
:1042D0000F38434502DB2368D8070DD5DDE90B23F2
:1042E00031462846B84701303FF444AF4FF000094B
:1042F00008F1FF38C84509DC23689B0700F10581F8
:10430000E068119B9842B8BF184635E70123314653
:10431000284604F11A02B84701303FF42BAF09F1E7
:104320000109E7E70F9B834238DC01233146284629
:10433000194AB84701303FF41DAFDDE90F3959EA9A
:10434000030302D12368D907D6D5DDE90B23314613
:104350002846B84701303FF40DAF4FF0000A0F9BDD
:104360005B42534501DC4B4697E701233146284623
:1043700004F11A02B84701303FF4FCAE0AF1010A19
:10438000EDE700BFFFFFEF7F108A00000C8A0000FE
:10439000188A0000148A00001C8A0000A36DDDF852
:1043A00040B05B45A8BF5B46002B089337DC4FF05D
:1043B000000904F11A02089BD4F858A0002BB4BFDE
:1043C0005346AAEB03034B4531DC0F9B9B453ADC7C
:1043D0002368DA0737D40F9BABEB0309ABEB0A0377
:1043E0009945A8BF9946B9F1000F34DC4FF0000899
:1043F0000F9BB9F1000FABEB0303A8BFA3EB0903BD
:1044000043457FF779AF01233146284604F11A026C
:10441000B84701303FF4AEAE08F10108E8E7424684
:1044200031462846089BB8470130C0D1A2E6012397
:10443000314628460D92B84701303FF49BAE0D9AA5
:1044400009F10109B7E73146DDE90B232846B847F2
:104450000130C0D18EE64B463146284608EB0A02B1
:10446000B8470130C2D185E6DDF840A0BAF1010FAE
:1044700001DCDB0735D50123424631462846B847E3
:1044800001303FF477AEDDE90B2331462846B847CB
:1044900001303FF46FAED4E91201002200230AF18B
:1044A000FF3AFFF739F8C8B9534608F1010231461F
:1044B0002846B84701300DD15CE601233146284635
:1044C00004F11A02B84701303FF454AE08F1010874
:1044D000D045F2DB4B4604F15002DFE64FF0000816
:1044E000F6E701234246E2E701233146284604F17C
:1044F0001902B84701303FF43DAE08F10108E36806
:1045000011995B1A4345EFDCFAE64FF00008F6E735
:104510002DE9F047914698468A680B690746934211
:10452000B8BF1346C9F8003091F843200C46089EE6
:1045300012B10133C9F800302368990642BFD9F897
:1045400000300233C9F80030256815F0060507D1A0
:1045500004F1190AE368D9F800209B1AAB4229DC60
:1045600094F843302268003B18BF012392062ED4F2
:104570004146384604F14302B047013021D0236858
:10458000A16803F00603042B12BF0025E568D9F8E3
:104590000030226904BFED1A25EAE5758B1A2B4419
:1045A0009142C8BF1D464FF000091A344D451AD13B
:1045B000002008E00123524641463846B04701300A
:1045C00003D14FF0FF30BDE8F0870135C2E730205E
:1045D000E11881F843005A1C94F845102244023334
:1045E00082F84310C4E70123224641463846B047CB
:1045F0000130E6D009F10109D8E700002DE9F043C8
:1046000098460B7E85B0782B174606460C460C9ACA
:1046100009D8622B01F1430108D8002B00F0DC809F
:10462000582B00F0BD8004F1420539E0A3F163008E
:104630001528F8D801A555F820F000BF95460000D0
:10464000A946000027460000274600002746000034
:1046500027460000A9460000274600002746000024
:104660002746000027460000B9470000D546000055
:10467000674700002746000027460000E14700008A
:1046800027460000D54600002746000027460000C8
:104690006F470000136804F14205191D1B68116083
:1046A00084F842300123A8E013682568181D1060C3
:1046B000280601D51B6803E06A06FBD5B3F9003074
:1046C000002B03DA2D225B4284F843200A22DFF814
:1046D00078C113E02568106815F0800F50F8043B8E
:1046E00002D16D0648BF9BB21060227EDFF858C130
:1046F0006F2A5DD10822002084F843006568002DF0
:10470000A56005DB20681D4320F00400206051D027
:104710000D46B3FBF2F002FB103E1CF80EE09A428D
:1047200005F801ED0346F4D9082A0BD12368DA070E
:1047300008D5236962689A42DEBF302305F8013C40
:1047400005F1FF35491B21613B4621463046CDF836
:10475000008003AAFFF7DCFE013053D14FF0FF3099
:1047600005B0BDE8F083236843F02003236078237D
:10477000DFF8D8C084F845302068156810F0800F45
:1047800055F8043B03D110F0400F18BF9BB21560E1
:10479000C50744BF40F02000206023B11022AAE7E3
:1047A000DFF8A4C0E6E7226822F020022260F5E7E5
:1047B0000A22A0E70D46B7E71368D4F800C01D1D14
:1047C00060691CF0800F15601B6801D0186003E061
:1047D0001CF0400FFAD0188000230D462361B3E788
:1047E0001368191D11601D6800212846626800F0D9
:1047F00086FB08B1401B606063682361002384F876
:104800004330A1E72A46394630462369C047013084
:10481000A4D023689B0714D4E068039B9842B8BFD8
:1048200018469DE701233946304604F11902C04776
:10483000013093D00135E36803995B1AAB42F1DC98
:10484000EAE70025F7E700BF1E8A00002F8A000074
:10485000B1F90C20F8B5160705460C4651D44B6843
:10486000002B02DC0B6C002B49DDE66A002E46D0E3
:10487000002312F480522F682B6031D0626DA3891F
:10488000590705D56368D21A636B0BB1236CD21A32
:1048900000232846E66A216AB047421CB4F90C306E
:1048A00006D129681D2944D8264ACA40D60740D5D2
:1048B000002262602269D904226004D5421C01D121
:1048C0002B6803B96065616B2F60C1B104F14403CB
:1048D000994202D0284601F059FA002363630EE0A2
:1048E00001232846216AB0470246501CC7D12B68D5
:1048F000002BC4D01D2B01D0162B19D12F60002006
:104900001CE00F69002FFAD0930718BF00230E6830
:1049100008BF4B69F61B0F608B60002EEFDD33463E
:104920003A462846216AD4F828C0E047002806DC29
:10493000A3894FF0FF3043F04003A381F8BD074443
:10494000361AEAE70100402038B50B6905460C46E7
:1049500013B91D46284638BD18B1036A0BB900F0DB
:10496000BDF8B4F90C30002BF3D0626ED00704D43C
:10497000990502D4A06D00F0C0FA28462146FFF741
:1049800067FF636E0546DA07E4D4A3899B05E1D48B
:10499000A06D00F0B3FADDE7014620B9044A0549ED
:1049A000054800F0B3B8054B1868FFF7CDBF00BF4E
:1049B000F00304204949000000040420FC03042003
:1049C000002310B50446C0E90033C0E90433836016
:1049D00081814366C2818361194608225C3000F000
:1049E00001FA0D4B246263620C4BA3620C4BE36231
:1049F0000C4B23630C4B9C4206D003F1680294429B
:104A000002D0D0339C4205D104F15800BDE81040DB
:104A100000F072BA10BD00BF394C00005B4C0000C2
:104A2000934C0000B94C0000040E0420024A0349D4
:104A3000034800F06BB800BFF003042049490000B0
:104A40000004042041680C4B10B59942044601D083
:104A5000FFF77AFFA168094B994202D02046FFF781
:104A600073FFE168064B994204D02046BDE8104030
:104A7000FFF76ABF10BD00BF040E04206C0E0420B7
:104A8000D40E042010B50A4B0A4A04211A600A48C1
:104A90000022FFF795FF012209210848FFF790FF48
:104AA000BDE81040022212210548FFF789BF00BF70
:104AB0003C0F04202D4A0000040E04206C0E04203C
:104AC000D40E0420014800F018BA00BF460F04209D
:104AD000014800F013BA00BF460F042010B5044689
:104AE000FFF7F0FF236A1BB1BDE81040FFF7F0BFEE
:104AF000044B2362044B1B68002BF5D1FFF7C2FF68
:104B0000F2E700BF454A00003C0F04202DE9F843BE
:104B10008046894614460026D4E90175013F05D533
:104B20002468002CF8D13046BDE8F883AB89012B0E
:104B300007D9B5F90E30013303D029464046C8479E
:104B400006436835EAE700000FB407B5064904AB31
:104B5000086853F8042B8168019301F0D3FD03B07A
:104B60005DF804EB04B07047FC030420024B0146DF
:104B70001868826801F031BFFC030420036A70B535
:104B800005460E4684680BB9FFF7A8FF636EDB0786
:104B900005D4A389980502D4A06D00F0AEF9A389CD
:104BA000190702D52369002B35D12146284600F08C
:104BB000C5F880B34FF0FF35636EDA0705D4A389DB
:104BC0009B0502D4A06D00F099F9284670BD002B1A
:104BD00004DAA269934217DB0A2915D023685A1C0C
:104BE00022601970A36816F8011F013BA360002919
:104BF000EDD18B4211DA22460A21284600F060F8F6
:104C00000130D7D00A25D7E72246284600F058F8C9
:104C10000130E7D1CEE7013EE4E723685A1C226069
:104C20000A221A70EEE70000024B01461868FFF7EF
:104C3000A5BF00BFFC03042010B50C46B1F90E104F
:104C400000F0FEF80028ABBF636DA3891B1823F4A6
:104C50008053ACBF6365A38110BD2DE9F0411F46B1
:104C60008B890546DB050C46164605D50223002236
:104C7000B1F90E1000F0D2F8A389324623F4805324
:104C8000A38128463B46B4F90E10BDE8F04100F080
:104C9000E9B810B50C46B1F90E1000F0BFF8B4F940
:104CA0000C30421C0BBF23F4805343F48053A38188
:104CB000A38118BF606510BDB1F90E1000F09EB859
:104CC000F8B505460F46144618B1036A0BB9FFF74D
:104CD00005FFA369A360A3891A0701D5236943B916
:104CE0002146284600F02AF818B14FF0FF3630462A
:104CF000F8BD23692068C01A6369834205DC214638
:104D00002846FFF721FE0028EFD1A3680130013BC0
:104D1000A3602368FEB25A1C22601F70636983423D
:104D200004D0A389DB07E2D50A2EE0D1214628462C
:104D3000FFF70AFE0028DAD0D7E7000038B5284B85
:104D4000054618680C4618B1036A0BB9FFF7C6FE92
:104D5000B4F90C30190720D4DA0607D409222A60E6
:104D600043F040034FF0FF30A38131E0580711D5E5
:104D7000616B41B104F14403994202D0284601F02D
:104D800005F8002363630022A3896260226923F08F
:104D90002403226043F00803A38123694BB9A3894C
:104DA00003F42073B3F5007F03D02146284601F0B9
:104DB000DBFDB4F90C3013F001020AD00022A2602E
:104DC00062695242A261226942B913F08000C7D1E0
:104DD00038BD990758BF6269A260F4E70020F7E781
:104DE000FC03042003460244934200D1704703F8B9
:104DF000011BF9E7004870474005042038B500233F
:104E0000054C054608462360FCF73CF9431C02D1DB
:104E1000236803B12B6038BD400F042038B5054628
:104E2000084611460022054C22601A46FCF732F96A
:104E3000431C02D1236803B12B6038BD400F04200E
:104E400038B50546084611460022054C22601A4630
:104E5000FCF722F9431C02D1236803B12B6038BD53
:104E6000400F042038B50546084611460022054C7F
:104E700022601A46FCF7E8F8431C02D1236803B10C
:104E80002B6038BD400F042070B500260C4C0D4B34
:104E90001D1BB6EBA50F09D1002603F073FC0A4CCD
:104EA0000A4B1D1BB6EBA50F05D170BD54F8043B92
:104EB00098470136EDE754F8043B98470136F1E78F
:104EC000BC050420BC050420BC050420C00504204A
:104ED00038B5074D074C641BA4101CB9BDE8384019
:104EE00003F056BC013C55F824309847F5E700BF65
:104EF000C0050420C405042070477047704703466E
:104F000010B5C9B20244934201D1002004E0184612
:104F1000047801338C42F6D110BD0A44914200F16D
:104F2000FF3300D1704710B511F8014B914203F8DF
:104F3000014FF9D110BD034613F8012B002AFBD114
:104F4000181A0138704700002DE9F843274D06462E
:104F5000286891460F469846FFF7CFFF244A146809
:104F60003CB9244B1360244A12B11268C3F888205C
:104F7000204C63681F2B06DD2868FFF7BFFF4FF04A
:104F8000FF30BDE8F8833EB3D4F8880068B91B4B06
:104F9000002BF1D04FF4847000F042FF0028EBD0DA
:104FA0000023C0E94033C4F8880001216368022E61
:104FB00040F82390D0F8002101FA03F142EA0102FF
:104FC00000EB830CC0F80021CCF8808002BFD0F841
:104FD00004210A43C0F804215A1C02332868626085
:104FE00044F82370FFF78AFF0020CAE74C0404202E
:104FF000D40F0420480F042000000000215E0000B0
:105000002DE9F74F2B4F019038688946FFF775FF60
:10501000DFF8A480D8F800602EB9386803B0BDE886
:10502000F04FFFF76BBF3546D6F888B055F8042F20
:105030000BF1800A541E05EB8205002CEDDBB9F163
:10504000000F09D0BBF1000F02D1013C043DF4E791
:105050005AF824204A45F8D171682A680139A142DA
:1050600016BF002374602B60002AEED07368009393
:10507000BBF1000F07D00123DBF8001103FA04FC99
:105080001CEA010F09D190477268009B9A42C1D176
:10509000D8F800209642D8D0BCE7DBF804015BF8D2
:1050A00024101CEA000F02D101989047ECE7084653
:1050B0009047E9E74C040420D40F04202DE9F74F72
:1050C00003690C698046A3427EDB013CA30000F12A
:1050D000140501F11407009305EB8403019357F8BD
:1050E000243055F8242001339A42B2FBF3F607EB43
:1050F00084092ED34FF0000ABC46AE46D3465CF876
:10510000043B98B206FB00A01B0C020C06FB032319
:10511000DEF8002080B292B2121A5A44DEF8000083
:105120004FEA134A9BB2C3EB224303EB104392B204
:1051300042EA0342E1454FEA234B4EF8042BDED20C
:10514000009BEB582BB9019B1A1F954230D3C8F82E
:105150001040404601F0A2F9002825DB2946002036
:10516000013657F8042BD1F800C01FFA82FE1FFA4F
:105170008CF3A3EB0E030344120CC2EB234202EBAD
:105180001C429BB243EA0243B9454FEA224041F830
:10519000043BE6D255F8242005EB840322B9043BF6
:1051A0009D420BD3C8F81040304603B0BDE8F08FE5
:1051B0001368002BCBD1043A013CC6E71A68002AD9
:1051C000F0D1043B013CEBE70020EEE700000000DB
:1051D0002DE9F04F16461F46C26999B08146CDE9C8
:1051E0000E67259C82B9102000F01AFE0246C9F80D
:1051F0001C0020B9EF21A84BA84801F055FC002362
:10520000C0E901330360C360116859B101235268DA
:10521000484693404A608B6000F0F2FE0022D9F8C5
:105220001C301A60B7F10008B5BF012300232360CA
:1052300023609B4BBCBF28F00048CDF83C8033EA8C
:1052400008031AD142F20F73249AC8F3130858EADC
:105250000608136000F06D85269B53B9914B21E041
:10526000914B03930833269A1360039819B0BDE855
:10527000F08F8C4B03930333F5E7DDE90E34CDE972
:105280000A34DDE90A0100220023FEF745F98246CF
:1052900050B10123249A1360269B13B1834B269AA5
:1052A0001360834B0393E0E716AB019317AB0093B6
:1052B0004846DDE90A2301F0A5F95FEA1854169D76
:1052C00004907BD0DDE90A010B9BA4F2FF34C3F309
:1052D000130343F07F5343F44013CDF850A0194615
:1052E0000022744BFDF7F8FC65A3D3E90023FDF71A
:1052F000ABFE65A3D3E90023FDF7F0FC064620468C
:105300000F46FDF737FE62A3D3E90023FDF79CFEAD
:1053100002460B4630463946FDF7E0FC06460F468E
:1053200001F088FC00228046002330463946FEF713
:10533000FDF848B14046FDF71DFE32463B46FEF7FC
:10534000EBF808B908F1FF38B8F1160F53D8DDE9CA
:105350000A01594B03EBC803D3E90023FEF7E6F833
:1053600000284AD0002308F1FF3811932D1B6B1E33
:10537000099349BF00230027C5F101070993B8F13C
:10538000000F3CDB099BCDF8408043440993002388
:105390000C93229B092B64D8052BC4BF043B22939A
:1053A000229BC8BF0024A3F10203D8BF0124032B12
:1053B00000F28680DFE803F05153362B179C2C4413
:1053C00004F23243202BC1BFC3F1400308FA03F8B3
:1053D00004F2124326FA03F3D6BFC3F1200348EACE
:1053E000030006FA03F0FDF7B5FD0122A1F1F87301
:1053F000013C149273E70123B7E71190B6E7C8F1B7
:1054000000030C930023A7EB08071093C1E70123C7
:105410000D93239B434408930133012B0593B8BF9D
:10542000012306E001230D93239B002B4BDD089302
:10543000059300210422D9F81C0002F114059D42B5
:1054400046D94160484600F09DFD0390002842D1B6
:10545000024640F2AF11194BCEE60023E3E70023EA
:10546000D6E7012400230D9422934FF0FF3300224E
:105470000893059323921223DBE700BFAFF300806C
:1054800061436F63A787D23FB3C8608B288AC63F4A
:10549000FB799F501344D33F4D8A0000648A00007B
:1054A0000000F07F498A0000408A00001D8A000049
:1054B0001C8A00000000F83F608B0000908A00000A
:1054C00001230D93D1E70123089305932393B0E7BC
:1054D00001315200B1E7D9F81C30039A1A60059BDC
:1054E0000E2B75D8002C73D0B8F1000F40F3C48098
:1054F0009F4B08F00F0203EBC20318F4807F4FEAC2
:105500002815D3E900AB00F0A380DDE90A01994B2F
:105510000324D3E90823FDF7C1FECDE9060105F018
:105520000F05944E002D40F09980DDE906015246AA
:105530005B46FDF7B3FE82468B46119B002B00F0C5
:10554000C3800022504659468B4BFDF7EFFF0028E1
:1055500000F0BA80059B002B00F0B680089B002B62
:1055600036DD08F1FF335046594606930022834B3F
:10557000FDF76AFD82468B46089E01342046FDF702
:10558000F9FC52465B46FDF75FFD00227C4BFDF7C0
:10559000A5FB0446A1F15075CDE91245002E40F05F
:1055A0009780002250465946764BFDF795FB2246E0
:1055B0002B4682468B46FDF7D7FF002840F0C1827C
:1055C00022465046594605F10043FDF7AFFF20BB88
:1055D000179B002BC0F29181B8F10E0F00F38D8163
:1055E000634B03EBC803D3E900AB239B002B80F292
:1055F0001B81059B002B00F317810ED10022614B0C
:1056000050465946FDF720FD02460B46DDE90A01EA
:10561000FDF796FF002800F0978200252C46239B7B
:10562000039EDB430693274600242946484600F0A4
:10563000E7FC002F00F0EE802CB1BC4203D02146E5
:10564000484600F0DDFC3946484600F0D9FCE1E070
:10565000DDE90A34CDE90634022462E7E90708D51A
:10566000D6E9002350465946FDF7EEFC82468B46AC
:1056700001346D10083655E722D0DDE90A01C8F182
:1056800000053B4B05F00F0203EBC203D3E90023F7
:10569000FDF7DAFC022482468B46364E2D11002D92
:1056A0003FF44BAFEA0708D5D6E9002350465946E8
:1056B000FDF7CAFC82468B4601346D100836EEE7D2
:1056C0000224DDE90AAB38E7059ECDF8188055E7DE
:1056D000274B03EBC60353E902010D9B002B55D06A
:1056E00002460B4600202849FDF7D8FDDDE91223CC
:1056F000FDF7F2FA039BCDE912019D191E465946AA
:10570000504601F097FA00F13004FDF733FC0246F1
:105710000B4650465946FDF7DFFADDE9122306F83D
:10572000014B82468B46FDF701FF002872D152469D
:105730005B4600201049FDF7CFFADDE91223FDF7A3
:10574000F5FE002840F0BA80AE423FF441AFDDE9FB
:1057500012010022094BFDF777FC0022CDE912016E
:10576000064B50465946FDF76FFC82468B46C6E70E
:10577000608B0000388B00000000F03F00002440E8
:1057800000001C40000014400000E03FDDE912234F
:10579000FDF75AFC039BCDE912013344039C15939A
:1057A0005946504601F046FA00F13005FDF7E2FB9C
:1057B0000B46024659465046FDF78EFA159B04F8F3
:1057C000015B9C4282468B4627D1DDE91201039B97
:1057D00000221E44B34BFDF781FA02460B465046A9
:1057E0005946FDF7C1FE002868D1DDE912230020EB
:1057F000AC49FDF771FA02460B4650465946FDF793
:1058000095FE00283FF4E4AE334616F8012D302A09
:10581000FAD01E46DDF818803EE00022A24BFDF7CC
:1058200013FC82468B46BBE70024039E9E4D5246E6
:10583000DDE90A015B46FDF731FD01F0FBF90746A2
:10584000FDF798FB52465B46FDF7FEFB02460B4612
:10585000DDE90A01FDF740FA07F1300C06F801CB4B
:10586000DDF80CC0DDF814E0A6EB0C0CE6450246B2
:105870000B4633D1FDF732FA52465B4604460D46DD
:10588000FDF772FEC0B952465B4620462946FDF739
:1058900043FE08B1FB070FD44846049900F0B0FB63
:1058A0000023249A337008F101031360269B002B18
:1058B0003FF4DBAC1E60D8E4CDF8188033461E46BA
:1058C00013F8012D392A06D1039A9A42F7D1069A84
:1058D00001320692302201321A709BE722462B4693
:1058E000FDF7B2FB02460B46CDE90A230022002356
:1058F000FDF712FE00289AD0CEE70D9A002A00F09C
:10590000DF80229A012A00F3BF80149A002A00F057
:10591000B78003F233430C9D3E46099A01211A4495
:1059200048461F44099200F01FFC044656B1099BEB
:10593000002B07DDB342A8BF3346099AFF1AF61AB7
:10594000D31A09930C9B0BB30D9B002B00F0BF8067
:10595000002D00F0B98021462A46484600F0D0FCD0
:10596000049A01460446484600F014FC0499824615
:10597000484600F045FB0C9B5B1B0C9300F0AA8093
:1059800051460C9A484600F0BBFC04900121484661
:1059900000F0EAFB109B0546002B00F0D1811A466F
:1059A0000146484600F0ACFC229B0546012B00F363
:1059B00099800E9B002B40F090800F9BC3F3130344
:1059C000002B40F08A800F9B23F000431B0D1B052A
:1059D000002B00F085804FF0010A099B013701334D
:1059E0000993109B002B00F0B1812B6905EB830319
:1059F000186900F06DFBC0F12000099B184410F0FD
:105A00001F0076D01B2870DCC0F11C000744064440
:105A100003440993002F05DD3A464846049900F0F7
:105A2000CBFC0490099B002B05DD29461A4648460D
:105A300000F0C2FC0546119B002B5FD0294604985C
:105A400000F02CFD002859DA08F1FF3306930A22F2
:105A500000234846049900F0F5FA0D9B0490002BB2
:105A600000F07681002321460A22484600F0EAFA37
:105A7000089B0446002B71DC229B022B47DC6DE067
:105A8000169BC3F1360346E7059B5D1E0C9BAB429C
:105A90000CDB5D1B059B002BBFF63EAF059BFE1A82
:105AA00000233AE70000E03F000024400C9B109ADE
:105AB000EB1A1A440C953E460025059B10922CE7E4
:105AC0003E460C9D0D9C31E7DDF810A058E70C9A7E
:105AD000049957E7CDF810A058E74FF0000A80E787
:105AE0009A467EE74FF0000A7FE71C2892D0C0F16B
:105AF00020001C30099B0744064489E7059BCDF82C
:105B00001880002B24DC0893229B022B22DD089BAB
:105B1000002B7FF484AD29460522089B484600F0FF
